{"contracts/KaiaGame.sol":{"KaiaGame":{"abi":[{"inputs":[],"stateMutability":"nonpayable","type":"constructor"},{"anonymous":false,"inputs":[{"indexed":true,"internalType":"address","name":"from","type":"address"},{"indexed":false,"internalType":"uint256","name":"amount","type":"uint256"}],"name":"Deposit","type":"event"},{"anonymous":false,"inputs":[{"indexed":true,"internalType":"address","name":"player","type":"address"},{"indexed":true,"internalType":"uint256","name":"gameId","type":"uint256"}],"name":"GameForfeited","type":"event"},{"anonymous":false,"inputs":[{"indexed":true,"internalType":"address","name":"player","type":"address"},{"indexed":true,"internalType":"uint256","name":"gameId","type":"uint256"},{"indexed":false,"internalType":"uint256","name":"participationFee","type":"uint256"}],"name":"MoveCommitted","type":"event"},{"anonymous":false,"inputs":[{"indexed":true,"internalType":"address","name":"player","type":"address"},{"indexed":true,"internalType":"uint256","name":"gameId","type":"uint256"},{"indexed":false,"internalType":"enum KaiaGame.Move","name":"userMove","type":"uint8"},{"indexed":false,"internalType":"enum KaiaGame.Move","name":"botMove","type":"uint8"},{"indexed":false,"internalType":"enum KaiaGame.Winner","name":"winner","type":"uint8"},{"indexed":false,"internalType":"uint256","name":"prizeMoney","type":"uint256"}],"name":"MoveRevealed","type":"event"},{"anonymous":false,"inputs":[{"indexed":true,"internalType":"address","name":"to","type":"address"},{"indexed":false,"internalType":"uint256","name":"amount","type":"uint256"}],"name":"Withdraw","type":"event"},{"inputs":[{"internalType":"address","name":"","type":"address"}],"name":"activeGameOf","outputs":[{"internalType":"uint256","name":"","type":"uint256"}],"stateMutability":"view","type":"function"},{"inputs":[{"internalType":"bytes32","name":"_commitHash","type":"bytes32"}],"name":"commitMove","outputs":[],"stateMutability":"payable","type":"function"},{"inputs":[],"name":"deposit","outputs":[],"stateMutability":"payable","type":"function"},{"inputs":[],"name":"forfeitCurrentGame","outputs":[],"stateMutability":"nonpayable","type":"function"},{"inputs":[{"internalType":"uint256","name":"","type":"uint256"}],"name":"gamesById","outputs":[{"internalType":"uint256","name":"id","type":"uint256"},{"internalType":"address","name":"player","type":"address"},{"internalType":"bytes32","name":"commitHash","type":"bytes32"},{"internalType":"uint256","name":"participationFee","type":"uint256"},{"internalType":"uint256","name":"commitBlock","type":"uint256"},{"internalType":"enum KaiaGame.Move","name":"userMove","type":"uint8"},{"internalType":"enum KaiaGame.Move","name":"botMove","type":"uint8"},{"internalType":"uint256","name":"prizeMoney","type":"uint256"},{"internalType":"enum KaiaGame.Winner","name":"winner","type":"uint8"},{"internalType":"bool","name":"claimed","type":"bool"},{"internalType":"uint256","name":"revealBlock","type":"uint256"}],"stateMutability":"view","type":"function"},{"inputs":[{"internalType":"address","name":"player","type":"address"}],"name":"getCurrentGame","outputs":[{"internalType":"bool","name":"exists","type":"bool"},{"components":[{"internalType":"uint256","name":"id","type":"uint256"},{"internalType":"address","name":"player","type":"address"},{"internalType":"uint256","name":"participationFee","type":"uint256"},{"internalType":"uint8","name":"userMove","type":"uint8"},{"internalType":"uint8","name":"botMove","type":"uint8"},{"internalType":"uint8","name":"winner","type":"uint8"},{"internalType":"uint256","name":"prizeMoney","type":"uint256"},{"internalType":"uint256","name":"commitBlock","type":"uint256"},{"internalType":"uint256","name":"revealBlock","type":"uint256"}],"internalType":"struct KaiaGame.GameView","name":"v","type":"tuple"}],"stateMutability":"view","type":"function"},{"inputs":[{"internalType":"uint256","name":"n","type":"uint256"}],"name":"getLatestGames","outputs":[{"components":[{"internalType":"uint256","name":"id","type":"uint256"},{"internalType":"address","name":"player","type":"address"},{"internalType":"uint256","name":"participationFee","type":"uint256"},{"internalType":"uint8","name":"userMove","type":"uint8"},{"internalType":"uint8","name":"botMove","type":"uint8"},{"internalType":"uint8","name":"winner","type":"uint8"},{"internalType":"uint256","name":"prizeMoney","type":"uint256"},{"internalType":"uint256","name":"commitBlock","type":"uint256"},{"internalType":"uint256","name":"revealBlock","type":"uint256"}],"internalType":"struct KaiaGame.GameView[]","name":"out","type":"tuple[]"}],"stateMutability":"view","type":"function"},{"inputs":[{"internalType":"address","name":"player","type":"address"},{"internalType":"uint256","name":"n","type":"uint256"}],"name":"getLatestGamesOf","outputs":[{"components":[{"internalType":"uint256","name":"id","type":"uint256"},{"internalType":"address","name":"player","type":"address"},{"internalType":"uint256","name":"participationFee","type":"uint256"},{"internalType":"uint8","name":"userMove","type":"uint8"},{"internalType":"uint8","name":"botMove","type":"uint8"},{"internalType":"uint8","name":"winner","type":"uint8"},{"internalType":"uint256","name":"prizeMoney","type":"uint256"},{"internalType":"uint256","name":"commitBlock","type":"uint256"},{"internalType":"uint256","name":"revealBlock","type":"uint256"}],"internalType":"struct KaiaGame.GameView[]","name":"out","type":"tuple[]"}],"stateMutability":"view","type":"function"},{"inputs":[],"name":"nextGameId","outputs":[{"internalType":"uint256","name":"","type":"uint256"}],"stateMutability":"view","type":"function"},{"inputs":[],"name":"owner","outputs":[{"internalType":"address","name":"","type":"address"}],"stateMutability":"view","type":"function"},{"inputs":[],"name":"reservedHouseLiquidity","outputs":[{"internalType":"uint256","name":"","type":"uint256"}],"stateMutability":"view","type":"function"},{"inputs":[{"internalType":"enum KaiaGame.Move","name":"_move","type":"uint8"},{"internalType":"bytes32","name":"_salt","type":"bytes32"}],"name":"revealMove","outputs":[],"stateMutability":"nonpayable","type":"function"},{"inputs":[],"name":"totalGames","outputs":[{"internalType":"uint256","name":"","type":"uint256"}],"stateMutability":"view","type":"function"},{"inputs":[{"internalType":"uint256","name":"amount","type":"uint256"}],"name":"withdraw","outputs":[],"stateMutability":"nonpayable","type":"function"},{"inputs":[],"name":"withdrawAllUnreserved","outputs":[],"stateMutability":"nonpayable","type":"function"},{"stateMutability":"payable","type":"receive"}],"evm":{"bytecode":{"linkReferences":{},"object":"60806040526001805534801561001457600080fd5b50600080546001600160a01b03191633179055611971806100366000396000f3fe6080604052600436106100eb5760003560e01c80638da5cb5b1161008a578063ae55a63711610059578063ae55a63714610333578063b135bbb014610353578063c782076f14610369578063d0e30db01461037f57600080fd5b80638da5cb5b146102b3578063a18556bc146102eb578063a8f7d44214610300578063a9ea37b61461032057600080fd5b80631824a1c1116100c65780631824a1c1146102395780632c4e591b146102505780632e1a7d4d14610265578063447b2a061461028557600080fd5b806248591c1461012c578063044a9758146101625780630ea92f351461019d57600080fd5b366101275760405134815233907fe1fffcc4923d04b559f4d29a8bfc6cda04eb5b0d3c460751c2402c5c5cc9109c9060200160405180910390a2005b600080fd5b34801561013857600080fd5b5061014c6101473660046115d8565b610387565b6040516101599190611679565b60405180910390f35b34801561016e57600080fd5b5061018f61017d3660046116c8565b60046020526000908152604090205481565b604051908152602001610159565b3480156101a957600080fd5b506102226101b83660046116ea565b600260208190526000918252604090912080546001820154928201546003830154600484015460058501546006860154600787015460089097015495976001600160a01b03169694959394929360ff8084169461010094859004821694818316939104909116908b565b6040516101599b9a9998979695949392919061173a565b34801561024557600080fd5b5061024e61060d565b005b34801561025c57600080fd5b5061018f610773565b34801561027157600080fd5b5061024e6102803660046116ea565b610788565b34801561029157600080fd5b506102a56102a03660046116c8565b6108e5565b6040516101599291906117b8565b3480156102bf57600080fd5b506000546102d3906001600160a01b031681565b6040516001600160a01b039091168152602001610159565b3480156102f757600080fd5b5061024e6109fa565b34801561030c57600080fd5b5061024e61031b3660046117cf565b610b31565b61024e61032e3660046116ea565b611025565b34801561033f57600080fd5b5061014c61034e3660046116ea565b611254565b34801561035f57600080fd5b5061018f60015481565b34801561037557600080fd5b5061018f60055481565b61024e6114be565b6060816000036103ca5760408051600080825260208201909252906103c2565b6103af61155e565b8152602001906001900390816103a75790505b509050610607565b601e8211156103d857601e91505b6001600160a01b0383166000908152600360205260408120549081900361043357604080516000808252602082019092529061042a565b61041761155e565b81526020019060019003908161040f5790505b50915050610607565b6000838210156104435781610445565b835b90508067ffffffffffffffff811115610460576104606117f1565b60405190808252806020026020018201604052801561049957816020015b61048661155e565b81526020019060019003908161047e5790505b5092506000825b6000811180156104af57508282105b15610602576001600160a01b03871660009081526003602052604081206104d760018461181d565b815481106104e7576104e7611830565b6000918252602080832090910154808352600282526040928390208351610120810185528154815260018201546001600160a01b03169381019390935260038082015494840194909452600581015491945092606083019160ff169081111561055257610552611703565b60ff1681526020018260050160019054906101000a900460ff16600381111561057d5761057d611703565b60ff908116825260078401546020909201911660038111156105a1576105a1611703565b60ff1681526006830154602082015260048301546040820152600883015460609091015287856105d081611846565b9650815181106105e2576105e2611830565b6020026020010181905250505080806105fa9061185f565b9150506104a0565b505050505b92915050565b6000546001600160a01b031633146106405760405162461bcd60e51b815260040161063790611876565b60405180910390fd5b600060055447610650919061181d565b9050600081116106985760405162461bcd60e51b81526020600482015260136024820152724e6f7468696e6720746f20776974686472617760681b6044820152606401610637565b600080546040516001600160a01b039091169083908381818185875af1925050503d80600081146106e5576040519150601f19603f3d011682016040523d82523d6000602084013e6106ea565b606091505b505090508061072d5760405162461bcd60e51b815260206004820152600f60248201526e15da5d1a191c985dc819985a5b1959608a1b6044820152606401610637565b6000546040518381526001600160a01b03909116907f884edad9ce6fa2440d8a54cc123490eb96d2768479d49ff9c7366125a94243649060200160405180910390a25050565b600060018054610783919061181d565b905090565b6000546001600160a01b031633146107b25760405162461bcd60e51b815260040161063790611876565b6000600554476107c2919061181d565b9050808211156108095760405162461bcd60e51b8152602060048201526012602482015271115e18d959591cc81d5b9c995cd95c9d995960721b6044820152606401610637565b600080546040516001600160a01b039091169084908381818185875af1925050503d8060008114610856576040519150601f19603f3d011682016040523d82523d6000602084013e61085b565b606091505b505090508061089e5760405162461bcd60e51b815260206004820152600f60248201526e15da5d1a191c985dc819985a5b1959608a1b6044820152606401610637565b6000546040518481526001600160a01b03909116907f884edad9ce6fa2440d8a54cc123490eb96d2768479d49ff9c7366125a94243649060200160405180910390a2505050565b60006108ef61155e565b6001600160a01b0383166000908152600460205260408120549081900361091a576000925050915091565b6000818152600260209081526040918290208251610120810184528154815260018201546001600160a01b0316928101929092526003808201549383019390935260058101549092606083019160ff169081111561097a5761097a611703565b60ff1681526020018260050160019054906101000a900460ff1660038111156109a5576109a5611703565b60ff908116825260078401546020909201911660038111156109c9576109c9611703565b60ff168152602001826006015481526020018260040154815260200182600801548152509250600193505050915091565b3360009081526004602052604081205490819003610a4b5760405162461bcd60e51b815260206004820152600e60248201526d4e6f206163746976652067616d6560901b6044820152606401610637565b60008181526002602052604090206007810154610100900460ff1615610aa65760405162461bcd60e51b815260206004820152601060248201526f105b1c9958591e48199a5b9a5cda195960821b6044820152606401610637565b6005818101805461ffff19908116909155600060068401819055600784018054909216610102179091554360088401553381526004602052604081208190556003830154825490929190610afb90849061181d565b9091555050604051829033907f52d692e007c37ea9f93a731dec9881a3d2009c718337cc995fb934bebdc56ad590600090a35050565b3360009081526004602052604081205490819003610b825760405162461bcd60e51b815260206004820152600e60248201526d4e6f206163746976652067616d6560901b6044820152606401610637565b60008181526002602052604090206007810154610100900460ff1615610bdd5760405162461bcd60e51b815260206004820152601060248201526f105b1c9958591e48199a5b9a5cda195960821b6044820152606401610637565b6000846003811115610bf157610bf1611703565b118015610c1057506003846003811115610c0d57610c0d611703565b11155b610c4b5760405162461bcd60e51b815260206004820152600c60248201526b496e76616c6964206d6f766560a01b6044820152606401610637565b60008484604051602001610c60929190611899565b60405160208183030381529060405280519060200120905081600201548114610cc25760405162461bcd60e51b8152602060048201526014602482015273125b9d985b1a59081b5bdd99481bdc881cd85b1d60621b6044820152606401610637565b6000444233604051602001610cfc93929190928352602083019190915260601b6bffffffffffffffffffffffff1916604082015260540190565b60408051601f19818403018152919052805160209091012090506000610d236003836118b5565b610d2e9060016118d7565b6003811115610d3f57610d3f611703565b905060006002826003811115610d5757610d57611703565b896003811115610d6957610d69611703565b03610d7c57505060038085015490610e3a565b6001896003811115610d9057610d90611703565b148015610dae57506003836003811115610dac57610dac611703565b145b80610de657506002896003811115610dc857610dc8611703565b148015610de657506001836003811115610de457610de4611703565b145b80610e1e57506003896003811115610e0057610e00611703565b148015610e1e57506002836003811115610e1c57610e1c611703565b145b15610e3a576003860154610e339060026118ea565b9150600190505b6005860180548a919060ff19166001836003811115610e5b57610e5b611703565b021790555060058601805484919061ff001916610100836003811115610e8357610e83611703565b02179055506006860182905560078601805482919060ff19166001836003811115610eb057610eb0611703565b021790555060078601805461ff00191661010017905543600887015533600090815260046020526040812081905560038701546005805491929091610ef690849061181d565b90915550508115610fd25781471015610f485760405162461bcd60e51b8152602060048201526014602482015273436f6e74726163742062616c616e6365206c6f7760601b6044820152606401610637565b604051600090339084908381818185875af1925050503d8060008114610f8a576040519150601f19603f3d011682016040523d82523d6000602084013e610f8f565b606091505b5050905080610fd05760405162461bcd60e51b815260206004820152600d60248201526c14185e5bdd5d0819985a5b1959609a1b6044820152606401610637565b505b86336001600160a01b03167ffe57ecd9a49c183cabfefc32d62783a27c344846c70c1ee5280b69581d86176c8b8685876040516110129493929190611901565b60405180910390a3505050505050505050565b600034116110755760405162461bcd60e51b815260206004820152601d60248201527f50617274696369706174696f6e20666565206d757374206265203e20300000006044820152606401610637565b336000908152600460205260409020548015806110a85750600081815260026020526040902060070154610100900460ff165b6110eb5760405162461bcd60e51b815260206004820152601460248201527346696e6973682070726576696f75732067616d6560601b6044820152606401610637565b60006110f7344761181d565b90503460055461110791906118d7565b8110156111565760405162461bcd60e51b815260206004820152601c60248201527f496e73756666696369656e7420686f757365206c6971756964697479000000006044820152606401610637565b600180546000918261116783611846565b909155506000818152600260208181526040808420858155600180820180546001600160a01b031916339081179091559482018b9055346003808401829055436004808601919091556005808601805461ffff19908116909155600687018b90556007870180549091169055600886018a905597895286528488208990558552928620805491820181558652928520909201859055825494955090939092906112119084906118d7565b9091555050604051348152829033907f44ab6335065cb21d8d31aaf52f3152dda1acb41265bcaeeee4c522ccc2240a9d9060200160405180910390a35050505050565b60608160000361129657604080516000808252602082019092529061128f565b61127c61155e565b8152602001906001900390816112745790505b5092915050565b601e8211156112a457601e91505b6000600180546112b4919061181d565b9050806000036112f75760408051600080825260208201909252906112ef565b6112dc61155e565b8152602001906001900390816112d45790505b509392505050565b60008382101561130857600161131d565b611312848361181d565b61131d9060016118d7565b9050600061132b828461181d565b6113369060016118d7565b90508067ffffffffffffffff811115611351576113516117f1565b60405190808252806020026020018201604052801561138a57816020015b61137761155e565b81526020019060019003908161136f5790505b5093506000835b8381106114b4576000818152600260209081526040918290208251610120810184528154815260018201546001600160a01b0316928101929092526003808201549383019390935260058101549092606083019160ff16908111156113f8576113f8611703565b60ff1681526020018260050160019054906101000a900460ff16600381111561142357611423611703565b60ff9081168252600784015460209092019116600381111561144757611447611703565b60ff16815260068301546020820152600483015460408201526008830154606090910152878461147681611846565b95508151811061148857611488611830565b6020026020010181905250816001036114a157506114b4565b50806114ac8161185f565b915050611391565b5050505050919050565b6000546001600160a01b031633146114e85760405162461bcd60e51b815260040161063790611876565b600034116115275760405162461bcd60e51b815260206004820152600c60248201526b16995c9bc819195c1bdcda5d60a21b6044820152606401610637565b60405134815233907fe1fffcc4923d04b559f4d29a8bfc6cda04eb5b0d3c460751c2402c5c5cc9109c9060200160405180910390a2565b6040518061012001604052806000815260200160006001600160a01b0316815260200160008152602001600060ff168152602001600060ff168152602001600060ff1681526020016000815260200160008152602001600081525090565b80356001600160a01b03811681146115d357600080fd5b919050565b600080604083850312156115eb57600080fd5b6115f4836115bc565b946020939093013593505050565b8051825260018060a01b0360208201511660208301526040810151604083015260ff60608201511660608301526080810151611643608084018260ff169052565b5060a081015161165860a084018260ff169052565b5060c0818101519083015260e0808201519083015261010090810151910152565b6020808252825182820181905260009190848201906040850190845b818110156116bc576116a8838551611602565b928401926101209290920191600101611695565b50909695505050505050565b6000602082840312156116da57600080fd5b6116e3826115bc565b9392505050565b6000602082840312156116fc57600080fd5b5035919050565b634e487b7160e01b600052602160045260246000fd5b6004811061173757634e487b7160e01b600052602160045260246000fd5b50565b8b81526001600160a01b038b166020820152604081018a90526060810189905260808101889052610160810161176f88611719565b8760a083015261177e87611719565b8660c08301528560e083015261179385611719565b6101008201949094529115156101208301526101409091015298975050505050505050565b821515815261014081016116e36020830184611602565b600080604083850312156117e257600080fd5b8235600481106115f457600080fd5b634e487b7160e01b600052604160045260246000fd5b634e487b7160e01b600052601160045260246000fd5b8181038181111561060757610607611807565b634e487b7160e01b600052603260045260246000fd5b60006001820161185857611858611807565b5060010190565b60008161186e5761186e611807565b506000190190565b6020808252600990820152682737ba1037bbb732b960b91b604082015260600190565b6118a283611719565b60f89290921b8252600182015260210190565b6000826118d257634e487b7160e01b600052601260045260246000fd5b500690565b8082018082111561060757610607611807565b808202811582820484141761060757610607611807565b6080810161190e86611719565b85825261191a85611719565b84602083015261192984611719565b6040820193909352606001529291505056fea2646970667358221220336f2c898d10cbaa2f664e06018ab02278c0d28a853c5b7499d5080d337e7b5c64736f6c63430008140033","opcodes":"PUSH1 0x80 PUSH1 0x40 MSTORE PUSH1 0x1 DUP1 SSTORE CALLVALUE DUP1 ISZERO PUSH2 0x14 JUMPI PUSH1 0x0 DUP1 REVERT JUMPDEST POP PUSH1 0x0 DUP1 SLOAD PUSH1 0x1 PUSH1 0x1 PUSH1 0xA0 SHL SUB NOT AND CALLER OR SWAP1 SSTORE PUSH2 0x1971 DUP1 PUSH2 0x36 PUSH1 0x0 CODECOPY PUSH1 0x0 RETURN INVALID PUSH1 0x80 PUSH1 0x40 MSTORE PUSH1 0x4 CALLDATASIZE LT PUSH2 0xEB JUMPI PUSH1 0x0 CALLDATALOAD PUSH1 0xE0 SHR DUP1 PUSH4 0x8DA5CB5B GT PUSH2 0x8A JUMPI DUP1 PUSH4 0xAE55A637 GT PUSH2 0x59 JUMPI DUP1 PUSH4 0xAE55A637 EQ PUSH2 0x333 JUMPI DUP1 PUSH4 0xB135BBB0 EQ PUSH2 0x353 JUMPI DUP1 PUSH4 0xC782076F EQ PUSH2 0x369 JUMPI DUP1 PUSH4 0xD0E30DB0 EQ PUSH2 0x37F JUMPI PUSH1 0x0 DUP1 REVERT JUMPDEST DUP1 PUSH4 0x8DA5CB5B EQ PUSH2 0x2B3 JUMPI DUP1 PUSH4 0xA18556BC EQ PUSH2 0x2EB JUMPI DUP1 PUSH4 0xA8F7D442 EQ PUSH2 0x300 JUMPI DUP1 PUSH4 0xA9EA37B6 EQ PUSH2 0x320 JUMPI PUSH1 0x0 DUP1 REVERT JUMPDEST DUP1 PUSH4 0x1824A1C1 GT PUSH2 0xC6 JUMPI DUP1 PUSH4 0x1824A1C1 EQ PUSH2 0x239 JUMPI DUP1 PUSH4 0x2C4E591B EQ PUSH2 0x250 JUMPI DUP1 PUSH4 0x2E1A7D4D EQ PUSH2 0x265 JUMPI DUP1 PUSH4 0x447B2A06 EQ PUSH2 0x285 JUMPI PUSH1 0x0 DUP1 REVERT JUMPDEST DUP1 PUSH3 0x48591C EQ PUSH2 0x12C JUMPI DUP1 PUSH4 0x44A9758 EQ PUSH2 0x162 JUMPI DUP1 PUSH4 0xEA92F35 EQ PUSH2 0x19D JUMPI PUSH1 0x0 DUP1 REVERT JUMPDEST CALLDATASIZE PUSH2 0x127 JUMPI PUSH1 0x40 MLOAD CALLVALUE DUP2 MSTORE CALLER SWAP1 PUSH32 0xE1FFFCC4923D04B559F4D29A8BFC6CDA04EB5B0D3C460751C2402C5C5CC9109C SWAP1 PUSH1 0x20 ADD PUSH1 0x40 MLOAD DUP1 SWAP2 SUB SWAP1 LOG2 STOP JUMPDEST PUSH1 0x0 DUP1 REVERT JUMPDEST CALLVALUE DUP1 ISZERO PUSH2 0x138 JUMPI PUSH1 0x0 DUP1 REVERT JUMPDEST POP PUSH2 0x14C PUSH2 0x147 CALLDATASIZE PUSH1 0x4 PUSH2 0x15D8 JUMP JUMPDEST PUSH2 0x387 JUMP JUMPDEST PUSH1 0x40 MLOAD PUSH2 0x159 SWAP2 SWAP1 PUSH2 0x1679 JUMP JUMPDEST PUSH1 0x40 MLOAD DUP1 SWAP2 SUB SWAP1 RETURN JUMPDEST CALLVALUE DUP1 ISZERO PUSH2 0x16E JUMPI PUSH1 0x0 DUP1 REVERT JUMPDEST POP PUSH2 0x18F PUSH2 0x17D CALLDATASIZE PUSH1 0x4 PUSH2 0x16C8 JUMP JUMPDEST PUSH1 0x4 PUSH1 0x20 MSTORE PUSH1 0x0 SWAP1 DUP2 MSTORE PUSH1 0x40 SWAP1 KECCAK256 SLOAD DUP2 JUMP JUMPDEST PUSH1 0x40 MLOAD SWAP1 DUP2 MSTORE PUSH1 0x20 ADD PUSH2 0x159 JUMP JUMPDEST CALLVALUE DUP1 ISZERO PUSH2 0x1A9 JUMPI PUSH1 0x0 DUP1 REVERT JUMPDEST POP PUSH2 0x222 PUSH2 0x1B8 CALLDATASIZE PUSH1 0x4 PUSH2 0x16EA JUMP JUMPDEST PUSH1 0x2 PUSH1 0x20 DUP2 SWAP1 MSTORE PUSH1 0x0 SWAP2 DUP3 MSTORE PUSH1 0x40 SWAP1 SWAP2 KECCAK256 DUP1 SLOAD PUSH1 0x1 DUP3 ADD SLOAD SWAP3 DUP3 ADD SLOAD PUSH1 0x3 DUP4 ADD SLOAD PUSH1 0x4 DUP5 ADD SLOAD PUSH1 0x5 DUP6 ADD SLOAD PUSH1 0x6 DUP7 ADD SLOAD PUSH1 0x7 DUP8 ADD SLOAD PUSH1 0x8 SWAP1 SWAP8 ADD SLOAD SWAP6 SWAP8 PUSH1 0x1 PUSH1 0x1 PUSH1 0xA0 SHL SUB AND SWAP7 SWAP5 SWAP6 SWAP4 SWAP5 SWAP3 SWAP4 PUSH1 0xFF DUP1 DUP5 AND SWAP5 PUSH2 0x100 SWAP5 DUP6 SWAP1 DIV DUP3 AND SWAP5 DUP2 DUP4 AND SWAP4 SWAP2 DIV SWAP1 SWAP2 AND SWAP1 DUP12 JUMP JUMPDEST PUSH1 0x40 MLOAD PUSH2 0x159 SWAP12 SWAP11 SWAP10 SWAP9 SWAP8 SWAP7 SWAP6 SWAP5 SWAP4 SWAP3 SWAP2 SWAP1 PUSH2 0x173A JUMP JUMPDEST CALLVALUE DUP1 ISZERO PUSH2 0x245 JUMPI PUSH1 0x0 DUP1 REVERT JUMPDEST POP PUSH2 0x24E PUSH2 0x60D JUMP JUMPDEST STOP JUMPDEST CALLVALUE DUP1 ISZERO PUSH2 0x25C JUMPI PUSH1 0x0 DUP1 REVERT JUMPDEST POP PUSH2 0x18F PUSH2 0x773 JUMP JUMPDEST CALLVALUE DUP1 ISZERO PUSH2 0x271 JUMPI PUSH1 0x0 DUP1 REVERT JUMPDEST POP PUSH2 0x24E PUSH2 0x280 CALLDATASIZE PUSH1 0x4 PUSH2 0x16EA JUMP JUMPDEST PUSH2 0x788 JUMP JUMPDEST CALLVALUE DUP1 ISZERO PUSH2 0x291 JUMPI PUSH1 0x0 DUP1 REVERT JUMPDEST POP PUSH2 0x2A5 PUSH2 0x2A0 CALLDATASIZE PUSH1 0x4 PUSH2 0x16C8 JUMP JUMPDEST PUSH2 0x8E5 JUMP JUMPDEST PUSH1 0x40 MLOAD PUSH2 0x159 SWAP3 SWAP2 SWAP1 PUSH2 0x17B8 JUMP JUMPDEST CALLVALUE DUP1 ISZERO PUSH2 0x2BF JUMPI PUSH1 0x0 DUP1 REVERT JUMPDEST POP PUSH1 0x0 SLOAD PUSH2 0x2D3 SWAP1 PUSH1 0x1 PUSH1 0x1 PUSH1 0xA0 SHL SUB AND DUP2 JUMP JUMPDEST PUSH1 0x40 MLOAD PUSH1 0x1 PUSH1 0x1 PUSH1 0xA0 SHL SUB SWAP1 SWAP2 AND DUP2 MSTORE PUSH1 0x20 ADD PUSH2 0x159 JUMP JUMPDEST CALLVALUE DUP1 ISZERO PUSH2 0x2F7 JUMPI PUSH1 0x0 DUP1 REVERT JUMPDEST POP PUSH2 0x24E PUSH2 0x9FA JUMP JUMPDEST CALLVALUE DUP1 ISZERO PUSH2 0x30C JUMPI PUSH1 0x0 DUP1 REVERT JUMPDEST POP PUSH2 0x24E PUSH2 0x31B CALLDATASIZE PUSH1 0x4 PUSH2 0x17CF JUMP JUMPDEST PUSH2 0xB31 JUMP JUMPDEST PUSH2 0x24E PUSH2 0x32E CALLDATASIZE PUSH1 0x4 PUSH2 0x16EA JUMP JUMPDEST PUSH2 0x1025 JUMP JUMPDEST CALLVALUE DUP1 ISZERO PUSH2 0x33F JUMPI PUSH1 0x0 DUP1 REVERT JUMPDEST POP PUSH2 0x14C PUSH2 0x34E CALLDATASIZE PUSH1 0x4 PUSH2 0x16EA JUMP JUMPDEST PUSH2 0x1254 JUMP JUMPDEST CALLVALUE DUP1 ISZERO PUSH2 0x35F JUMPI PUSH1 0x0 DUP1 REVERT JUMPDEST POP PUSH2 0x18F PUSH1 0x1 SLOAD DUP2 JUMP JUMPDEST CALLVALUE DUP1 ISZERO PUSH2 0x375 JUMPI PUSH1 0x0 DUP1 REVERT JUMPDEST POP PUSH2 0x18F PUSH1 0x5 SLOAD DUP2 JUMP JUMPDEST PUSH2 0x24E PUSH2 0x14BE JUMP JUMPDEST PUSH1 0x60 DUP2 PUSH1 0x0 SUB PUSH2 0x3CA JUMPI PUSH1 0x40 DUP1 MLOAD PUSH1 0x0 DUP1 DUP3 MSTORE PUSH1 0x20 DUP3 ADD SWAP1 SWAP3 MSTORE SWAP1 PUSH2 0x3C2 JUMP JUMPDEST PUSH2 0x3AF PUSH2 0x155E JUMP JUMPDEST DUP2 MSTORE PUSH1 0x20 ADD SWAP1 PUSH1 0x1 SWAP1 SUB SWAP1 DUP2 PUSH2 0x3A7 JUMPI SWAP1 POP JUMPDEST POP SWAP1 POP PUSH2 0x607 JUMP JUMPDEST PUSH1 0x1E DUP3 GT ISZERO PUSH2 0x3D8 JUMPI PUSH1 0x1E SWAP2 POP JUMPDEST PUSH1 0x1 PUSH1 0x1 PUSH1 0xA0 SHL SUB DUP4 AND PUSH1 0x0 SWAP1 DUP2 MSTORE PUSH1 0x3 PUSH1 0x20 MSTORE PUSH1 0x40 DUP2 KECCAK256 SLOAD SWAP1 DUP2 SWAP1 SUB PUSH2 0x433 JUMPI PUSH1 0x40 DUP1 MLOAD PUSH1 0x0 DUP1 DUP3 MSTORE PUSH1 0x20 DUP3 ADD SWAP1 SWAP3 MSTORE SWAP1 PUSH2 0x42A JUMP JUMPDEST PUSH2 0x417 PUSH2 0x155E JUMP JUMPDEST DUP2 MSTORE PUSH1 0x20 ADD SWAP1 PUSH1 0x1 SWAP1 SUB SWAP1 DUP2 PUSH2 0x40F JUMPI SWAP1 POP JUMPDEST POP SWAP2 POP POP PUSH2 0x607 JUMP JUMPDEST PUSH1 0x0 DUP4 DUP3 LT ISZERO PUSH2 0x443 JUMPI DUP2 PUSH2 0x445 JUMP JUMPDEST DUP4 JUMPDEST SWAP1 POP DUP1 PUSH8 0xFFFFFFFFFFFFFFFF DUP2 GT ISZERO PUSH2 0x460 JUMPI PUSH2 0x460 PUSH2 0x17F1 JUMP JUMPDEST PUSH1 0x40 MLOAD SWAP1 DUP1 DUP3 MSTORE DUP1 PUSH1 0x20 MUL PUSH1 0x20 ADD DUP3 ADD PUSH1 0x40 MSTORE DUP1 ISZERO PUSH2 0x499 JUMPI DUP2 PUSH1 0x20 ADD JUMPDEST PUSH2 0x486 PUSH2 0x155E JUMP JUMPDEST DUP2 MSTORE PUSH1 0x20 ADD SWAP1 PUSH1 0x1 SWAP1 SUB SWAP1 DUP2 PUSH2 0x47E JUMPI SWAP1 POP JUMPDEST POP SWAP3 POP PUSH1 0x0 DUP3 JUMPDEST PUSH1 0x0 DUP2 GT DUP1 ISZERO PUSH2 0x4AF JUMPI POP DUP3 DUP3 LT JUMPDEST ISZERO PUSH2 0x602 JUMPI PUSH1 0x1 PUSH1 0x1 PUSH1 0xA0 SHL SUB DUP8 AND PUSH1 0x0 SWAP1 DUP2 MSTORE PUSH1 0x3 PUSH1 0x20 MSTORE PUSH1 0x40 DUP2 KECCAK256 PUSH2 0x4D7 PUSH1 0x1 DUP5 PUSH2 0x181D JUMP JUMPDEST DUP2 SLOAD DUP2 LT PUSH2 0x4E7 JUMPI PUSH2 0x4E7 PUSH2 0x1830 JUMP JUMPDEST PUSH1 0x0 SWAP2 DUP3 MSTORE PUSH1 0x20 DUP1 DUP4 KECCAK256 SWAP1 SWAP2 ADD SLOAD DUP1 DUP4 MSTORE PUSH1 0x2 DUP3 MSTORE PUSH1 0x40 SWAP3 DUP4 SWAP1 KECCAK256 DUP4 MLOAD PUSH2 0x120 DUP2 ADD DUP6 MSTORE DUP2 SLOAD DUP2 MSTORE PUSH1 0x1 DUP3 ADD SLOAD PUSH1 0x1 PUSH1 0x1 PUSH1 0xA0 SHL SUB AND SWAP4 DUP2 ADD SWAP4 SWAP1 SWAP4 MSTORE PUSH1 0x3 DUP1 DUP3 ADD SLOAD SWAP5 DUP5 ADD SWAP5 SWAP1 SWAP5 MSTORE PUSH1 0x5 DUP2 ADD SLOAD SWAP2 SWAP5 POP SWAP3 PUSH1 0x60 DUP4 ADD SWAP2 PUSH1 0xFF AND SWAP1 DUP2 GT ISZERO PUSH2 0x552 JUMPI PUSH2 0x552 PUSH2 0x1703 JUMP JUMPDEST PUSH1 0xFF AND DUP2 MSTORE PUSH1 0x20 ADD DUP3 PUSH1 0x5 ADD PUSH1 0x1 SWAP1 SLOAD SWAP1 PUSH2 0x100 EXP SWAP1 DIV PUSH1 0xFF AND PUSH1 0x3 DUP2 GT ISZERO PUSH2 0x57D JUMPI PUSH2 0x57D PUSH2 0x1703 JUMP JUMPDEST PUSH1 0xFF SWAP1 DUP2 AND DUP3 MSTORE PUSH1 0x7 DUP5 ADD SLOAD PUSH1 0x20 SWAP1 SWAP3 ADD SWAP2 AND PUSH1 0x3 DUP2 GT ISZERO PUSH2 0x5A1 JUMPI PUSH2 0x5A1 PUSH2 0x1703 JUMP JUMPDEST PUSH1 0xFF AND DUP2 MSTORE PUSH1 0x6 DUP4 ADD SLOAD PUSH1 0x20 DUP3 ADD MSTORE PUSH1 0x4 DUP4 ADD SLOAD PUSH1 0x40 DUP3 ADD MSTORE PUSH1 0x8 DUP4 ADD SLOAD PUSH1 0x60 SWAP1 SWAP2 ADD MSTORE DUP8 DUP6 PUSH2 0x5D0 DUP2 PUSH2 0x1846 JUMP JUMPDEST SWAP7 POP DUP2 MLOAD DUP2 LT PUSH2 0x5E2 JUMPI PUSH2 0x5E2 PUSH2 0x1830 JUMP JUMPDEST PUSH1 0x20 MUL PUSH1 0x20 ADD ADD DUP2 SWAP1 MSTORE POP POP POP DUP1 DUP1 PUSH2 0x5FA SWAP1 PUSH2 0x185F JUMP JUMPDEST SWAP2 POP POP PUSH2 0x4A0 JUMP JUMPDEST POP POP POP POP JUMPDEST SWAP3 SWAP2 POP POP JUMP JUMPDEST PUSH1 0x0 SLOAD PUSH1 0x1 PUSH1 0x1 PUSH1 0xA0 SHL SUB AND CALLER EQ PUSH2 0x640 JUMPI PUSH1 0x40 MLOAD PUSH3 0x461BCD PUSH1 0xE5 SHL DUP2 MSTORE PUSH1 0x4 ADD PUSH2 0x637 SWAP1 PUSH2 0x1876 JUMP JUMPDEST PUSH1 0x40 MLOAD DUP1 SWAP2 SUB SWAP1 REVERT JUMPDEST PUSH1 0x0 PUSH1 0x5 SLOAD SELFBALANCE PUSH2 0x650 SWAP2 SWAP1 PUSH2 0x181D JUMP JUMPDEST SWAP1 POP PUSH1 0x0 DUP2 GT PUSH2 0x698 JUMPI PUSH1 0x40 MLOAD PUSH3 0x461BCD PUSH1 0xE5 SHL DUP2 MSTORE PUSH1 0x20 PUSH1 0x4 DUP3 ADD MSTORE PUSH1 0x13 PUSH1 0x24 DUP3 ADD MSTORE PUSH19 0x4E6F7468696E6720746F207769746864726177 PUSH1 0x68 SHL PUSH1 0x44 DUP3 ADD MSTORE PUSH1 0x64 ADD PUSH2 0x637 JUMP JUMPDEST PUSH1 0x0 DUP1 SLOAD PUSH1 0x40 MLOAD PUSH1 0x1 PUSH1 0x1 PUSH1 0xA0 SHL SUB SWAP1 SWAP2 AND SWAP1 DUP4 SWAP1 DUP4 DUP2 DUP2 DUP2 DUP6 DUP8 GAS CALL SWAP3 POP POP POP RETURNDATASIZE DUP1 PUSH1 0x0 DUP2 EQ PUSH2 0x6E5 JUMPI PUSH1 0x40 MLOAD SWAP2 POP PUSH1 0x1F NOT PUSH1 0x3F RETURNDATASIZE ADD AND DUP3 ADD PUSH1 0x40 MSTORE RETURNDATASIZE DUP3 MSTORE RETURNDATASIZE PUSH1 0x0 PUSH1 0x20 DUP5 ADD RETURNDATACOPY PUSH2 0x6EA JUMP JUMPDEST PUSH1 0x60 SWAP2 POP JUMPDEST POP POP SWAP1 POP DUP1 PUSH2 0x72D JUMPI PUSH1 0x40 MLOAD PUSH3 0x461BCD PUSH1 0xE5 SHL DUP2 MSTORE PUSH1 0x20 PUSH1 0x4 DUP3 ADD MSTORE PUSH1 0xF PUSH1 0x24 DUP3 ADD MSTORE PUSH15 0x15DA5D1A191C985DC819985A5B1959 PUSH1 0x8A SHL PUSH1 0x44 DUP3 ADD MSTORE PUSH1 0x64 ADD PUSH2 0x637 JUMP JUMPDEST PUSH1 0x0 SLOAD PUSH1 0x40 MLOAD DUP4 DUP2 MSTORE PUSH1 0x1 PUSH1 0x1 PUSH1 0xA0 SHL SUB SWAP1 SWAP2 AND SWAP1 PUSH32 0x884EDAD9CE6FA2440D8A54CC123490EB96D2768479D49FF9C7366125A9424364 SWAP1 PUSH1 0x20 ADD PUSH1 0x40 MLOAD DUP1 SWAP2 SUB SWAP1 LOG2 POP POP JUMP JUMPDEST PUSH1 0x0 PUSH1 0x1 DUP1 SLOAD PUSH2 0x783 SWAP2 SWAP1 PUSH2 0x181D JUMP JUMPDEST SWAP1 POP SWAP1 JUMP JUMPDEST PUSH1 0x0 SLOAD PUSH1 0x1 PUSH1 0x1 PUSH1 0xA0 SHL SUB AND CALLER EQ PUSH2 0x7B2 JUMPI PUSH1 0x40 MLOAD PUSH3 0x461BCD PUSH1 0xE5 SHL DUP2 MSTORE PUSH1 0x4 ADD PUSH2 0x637 SWAP1 PUSH2 0x1876 JUMP JUMPDEST PUSH1 0x0 PUSH1 0x5 SLOAD SELFBALANCE PUSH2 0x7C2 SWAP2 SWAP1 PUSH2 0x181D JUMP JUMPDEST SWAP1 POP DUP1 DUP3 GT ISZERO PUSH2 0x809 JUMPI PUSH1 0x40 MLOAD PUSH3 0x461BCD PUSH1 0xE5 SHL DUP2 MSTORE PUSH1 0x20 PUSH1 0x4 DUP3 ADD MSTORE PUSH1 0x12 PUSH1 0x24 DUP3 ADD MSTORE PUSH18 0x115E18D959591CC81D5B9C995CD95C9D9959 PUSH1 0x72 SHL PUSH1 0x44 DUP3 ADD MSTORE PUSH1 0x64 ADD PUSH2 0x637 JUMP JUMPDEST PUSH1 0x0 DUP1 SLOAD PUSH1 0x40 MLOAD PUSH1 0x1 PUSH1 0x1 PUSH1 0xA0 SHL SUB SWAP1 SWAP2 AND SWAP1 DUP5 SWAP1 DUP4 DUP2 DUP2 DUP2 DUP6 DUP8 GAS CALL SWAP3 POP POP POP RETURNDATASIZE DUP1 PUSH1 0x0 DUP2 EQ PUSH2 0x856 JUMPI PUSH1 0x40 MLOAD SWAP2 POP PUSH1 0x1F NOT PUSH1 0x3F RETURNDATASIZE ADD AND DUP3 ADD PUSH1 0x40 MSTORE RETURNDATASIZE DUP3 MSTORE RETURNDATASIZE PUSH1 0x0 PUSH1 0x20 DUP5 ADD RETURNDATACOPY PUSH2 0x85B JUMP JUMPDEST PUSH1 0x60 SWAP2 POP JUMPDEST POP POP SWAP1 POP DUP1 PUSH2 0x89E JUMPI PUSH1 0x40 MLOAD PUSH3 0x461BCD PUSH1 0xE5 SHL DUP2 MSTORE PUSH1 0x20 PUSH1 0x4 DUP3 ADD MSTORE PUSH1 0xF PUSH1 0x24 DUP3 ADD MSTORE PUSH15 0x15DA5D1A191C985DC819985A5B1959 PUSH1 0x8A SHL PUSH1 0x44 DUP3 ADD MSTORE PUSH1 0x64 ADD PUSH2 0x637 JUMP JUMPDEST PUSH1 0x0 SLOAD PUSH1 0x40 MLOAD DUP5 DUP2 MSTORE PUSH1 0x1 PUSH1 0x1 PUSH1 0xA0 SHL SUB SWAP1 SWAP2 AND SWAP1 PUSH32 0x884EDAD9CE6FA2440D8A54CC123490EB96D2768479D49FF9C7366125A9424364 SWAP1 PUSH1 0x20 ADD PUSH1 0x40 MLOAD DUP1 SWAP2 SUB SWAP1 LOG2 POP POP POP JUMP JUMPDEST PUSH1 0x0 PUSH2 0x8EF PUSH2 0x155E JUMP JUMPDEST PUSH1 0x1 PUSH1 0x1 PUSH1 0xA0 SHL SUB DUP4 AND PUSH1 0x0 SWAP1 DUP2 MSTORE PUSH1 0x4 PUSH1 0x20 MSTORE PUSH1 0x40 DUP2 KECCAK256 SLOAD SWAP1 DUP2 SWAP1 SUB PUSH2 0x91A JUMPI PUSH1 0x0 SWAP3 POP POP SWAP2 POP SWAP2 JUMP JUMPDEST PUSH1 0x0 DUP2 DUP2 MSTORE PUSH1 0x2 PUSH1 0x20 SWAP1 DUP2 MSTORE PUSH1 0x40 SWAP2 DUP3 SWAP1 KECCAK256 DUP3 MLOAD PUSH2 0x120 DUP2 ADD DUP5 MSTORE DUP2 SLOAD DUP2 MSTORE PUSH1 0x1 DUP3 ADD SLOAD PUSH1 0x1 PUSH1 0x1 PUSH1 0xA0 SHL SUB AND SWAP3 DUP2 ADD SWAP3 SWAP1 SWAP3 MSTORE PUSH1 0x3 DUP1 DUP3 ADD SLOAD SWAP4 DUP4 ADD SWAP4 SWAP1 SWAP4 MSTORE PUSH1 0x5 DUP2 ADD SLOAD SWAP1 SWAP3 PUSH1 0x60 DUP4 ADD SWAP2 PUSH1 0xFF AND SWAP1 DUP2 GT ISZERO PUSH2 0x97A JUMPI PUSH2 0x97A PUSH2 0x1703 JUMP JUMPDEST PUSH1 0xFF AND DUP2 MSTORE PUSH1 0x20 ADD DUP3 PUSH1 0x5 ADD PUSH1 0x1 SWAP1 SLOAD SWAP1 PUSH2 0x100 EXP SWAP1 DIV PUSH1 0xFF AND PUSH1 0x3 DUP2 GT ISZERO PUSH2 0x9A5 JUMPI PUSH2 0x9A5 PUSH2 0x1703 JUMP JUMPDEST PUSH1 0xFF SWAP1 DUP2 AND DUP3 MSTORE PUSH1 0x7 DUP5 ADD SLOAD PUSH1 0x20 SWAP1 SWAP3 ADD SWAP2 AND PUSH1 0x3 DUP2 GT ISZERO PUSH2 0x9C9 JUMPI PUSH2 0x9C9 PUSH2 0x1703 JUMP JUMPDEST PUSH1 0xFF AND DUP2 MSTORE PUSH1 0x20 ADD DUP3 PUSH1 0x6 ADD SLOAD DUP2 MSTORE PUSH1 0x20 ADD DUP3 PUSH1 0x4 ADD SLOAD DUP2 MSTORE PUSH1 0x20 ADD DUP3 PUSH1 0x8 ADD SLOAD DUP2 MSTORE POP SWAP3 POP PUSH1 0x1 SWAP4 POP POP POP SWAP2 POP SWAP2 JUMP JUMPDEST CALLER PUSH1 0x0 SWAP1 DUP2 MSTORE PUSH1 0x4 PUSH1 0x20 MSTORE PUSH1 0x40 DUP2 KECCAK256 SLOAD SWAP1 DUP2 SWAP1 SUB PUSH2 0xA4B JUMPI PUSH1 0x40 MLOAD PUSH3 0x461BCD PUSH1 0xE5 SHL DUP2 MSTORE PUSH1 0x20 PUSH1 0x4 DUP3 ADD MSTORE PUSH1 0xE PUSH1 0x24 DUP3 ADD MSTORE PUSH14 0x4E6F206163746976652067616D65 PUSH1 0x90 SHL PUSH1 0x44 DUP3 ADD MSTORE PUSH1 0x64 ADD PUSH2 0x637 JUMP JUMPDEST PUSH1 0x0 DUP2 DUP2 MSTORE PUSH1 0x2 PUSH1 0x20 MSTORE PUSH1 0x40 SWAP1 KECCAK256 PUSH1 0x7 DUP2 ADD SLOAD PUSH2 0x100 SWAP1 DIV PUSH1 0xFF AND ISZERO PUSH2 0xAA6 JUMPI PUSH1 0x40 MLOAD PUSH3 0x461BCD PUSH1 0xE5 SHL DUP2 MSTORE PUSH1 0x20 PUSH1 0x4 DUP3 ADD MSTORE PUSH1 0x10 PUSH1 0x24 DUP3 ADD MSTORE PUSH16 0x105B1C9958591E48199A5B9A5CDA1959 PUSH1 0x82 SHL PUSH1 0x44 DUP3 ADD MSTORE PUSH1 0x64 ADD PUSH2 0x637 JUMP JUMPDEST PUSH1 0x5 DUP2 DUP2 ADD DUP1 SLOAD PUSH2 0xFFFF NOT SWAP1 DUP2 AND SWAP1 SWAP2 SSTORE PUSH1 0x0 PUSH1 0x6 DUP5 ADD DUP2 SWAP1 SSTORE PUSH1 0x7 DUP5 ADD DUP1 SLOAD SWAP1 SWAP3 AND PUSH2 0x102 OR SWAP1 SWAP2 SSTORE NUMBER PUSH1 0x8 DUP5 ADD SSTORE CALLER DUP2 MSTORE PUSH1 0x4 PUSH1 0x20 MSTORE PUSH1 0x40 DUP2 KECCAK256 DUP2 SWAP1 SSTORE PUSH1 0x3 DUP4 ADD SLOAD DUP3 SLOAD SWAP1 SWAP3 SWAP2 SWAP1 PUSH2 0xAFB SWAP1 DUP5 SWAP1 PUSH2 0x181D JUMP JUMPDEST SWAP1 SWAP2 SSTORE POP POP PUSH1 0x40 MLOAD DUP3 SWAP1 CALLER SWAP1 PUSH32 0x52D692E007C37EA9F93A731DEC9881A3D2009C718337CC995FB934BEBDC56AD5 SWAP1 PUSH1 0x0 SWAP1 LOG3 POP POP JUMP JUMPDEST CALLER PUSH1 0x0 SWAP1 DUP2 MSTORE PUSH1 0x4 PUSH1 0x20 MSTORE PUSH1 0x40 DUP2 KECCAK256 SLOAD SWAP1 DUP2 SWAP1 SUB PUSH2 0xB82 JUMPI PUSH1 0x40 MLOAD PUSH3 0x461BCD PUSH1 0xE5 SHL DUP2 MSTORE PUSH1 0x20 PUSH1 0x4 DUP3 ADD MSTORE PUSH1 0xE PUSH1 0x24 DUP3 ADD MSTORE PUSH14 0x4E6F206163746976652067616D65 PUSH1 0x90 SHL PUSH1 0x44 DUP3 ADD MSTORE PUSH1 0x64 ADD PUSH2 0x637 JUMP JUMPDEST PUSH1 0x0 DUP2 DUP2 MSTORE PUSH1 0x2 PUSH1 0x20 MSTORE PUSH1 0x40 SWAP1 KECCAK256 PUSH1 0x7 DUP2 ADD SLOAD PUSH2 0x100 SWAP1 DIV PUSH1 0xFF AND ISZERO PUSH2 0xBDD JUMPI PUSH1 0x40 MLOAD PUSH3 0x461BCD PUSH1 0xE5 SHL DUP2 MSTORE PUSH1 0x20 PUSH1 0x4 DUP3 ADD MSTORE PUSH1 0x10 PUSH1 0x24 DUP3 ADD MSTORE PUSH16 0x105B1C9958591E48199A5B9A5CDA1959 PUSH1 0x82 SHL PUSH1 0x44 DUP3 ADD MSTORE PUSH1 0x64 ADD PUSH2 0x637 JUMP JUMPDEST PUSH1 0x0 DUP5 PUSH1 0x3 DUP2 GT ISZERO PUSH2 0xBF1 JUMPI PUSH2 0xBF1 PUSH2 0x1703 JUMP JUMPDEST GT DUP1 ISZERO PUSH2 0xC10 JUMPI POP PUSH1 0x3 DUP5 PUSH1 0x3 DUP2 GT ISZERO PUSH2 0xC0D JUMPI PUSH2 0xC0D PUSH2 0x1703 JUMP JUMPDEST GT ISZERO JUMPDEST PUSH2 0xC4B JUMPI PUSH1 0x40 MLOAD PUSH3 0x461BCD PUSH1 0xE5 SHL DUP2 MSTORE PUSH1 0x20 PUSH1 0x4 DUP3 ADD MSTORE PUSH1 0xC PUSH1 0x24 DUP3 ADD MSTORE PUSH12 0x496E76616C6964206D6F7665 PUSH1 0xA0 SHL PUSH1 0x44 DUP3 ADD MSTORE PUSH1 0x64 ADD PUSH2 0x637 JUMP JUMPDEST PUSH1 0x0 DUP5 DUP5 PUSH1 0x40 MLOAD PUSH1 0x20 ADD PUSH2 0xC60 SWAP3 SWAP2 SWAP1 PUSH2 0x1899 JUMP JUMPDEST PUSH1 0x40 MLOAD PUSH1 0x20 DUP2 DUP4 SUB SUB DUP2 MSTORE SWAP1 PUSH1 0x40 MSTORE DUP1 MLOAD SWAP1 PUSH1 0x20 ADD KECCAK256 SWAP1 POP DUP2 PUSH1 0x2 ADD SLOAD DUP2 EQ PUSH2 0xCC2 JUMPI PUSH1 0x40 MLOAD PUSH3 0x461BCD PUSH1 0xE5 SHL DUP2 MSTORE PUSH1 0x20 PUSH1 0x4 DUP3 ADD MSTORE PUSH1 0x14 PUSH1 0x24 DUP3 ADD MSTORE PUSH20 0x125B9D985B1A59081B5BDD99481BDC881CD85B1D PUSH1 0x62 SHL PUSH1 0x44 DUP3 ADD MSTORE PUSH1 0x64 ADD PUSH2 0x637 JUMP JUMPDEST PUSH1 0x0 PREVRANDAO TIMESTAMP CALLER PUSH1 0x40 MLOAD PUSH1 0x20 ADD PUSH2 0xCFC SWAP4 SWAP3 SWAP2 SWAP1 SWAP3 DUP4 MSTORE PUSH1 0x20 DUP4 ADD SWAP2 SWAP1 SWAP2 MSTORE PUSH1 0x60 SHL PUSH12 0xFFFFFFFFFFFFFFFFFFFFFFFF NOT AND PUSH1 0x40 DUP3 ADD MSTORE PUSH1 0x54 ADD SWAP1 JUMP JUMPDEST PUSH1 0x40 DUP1 MLOAD PUSH1 0x1F NOT DUP2 DUP5 SUB ADD DUP2 MSTORE SWAP2 SWAP1 MSTORE DUP1 MLOAD PUSH1 0x20 SWAP1 SWAP2 ADD KECCAK256 SWAP1 POP PUSH1 0x0 PUSH2 0xD23 PUSH1 0x3 DUP4 PUSH2 0x18B5 JUMP JUMPDEST PUSH2 0xD2E SWAP1 PUSH1 0x1 PUSH2 0x18D7 JUMP JUMPDEST PUSH1 0x3 DUP2 GT ISZERO PUSH2 0xD3F JUMPI PUSH2 0xD3F PUSH2 0x1703 JUMP JUMPDEST SWAP1 POP PUSH1 0x0 PUSH1 0x2 DUP3 PUSH1 0x3 DUP2 GT ISZERO PUSH2 0xD57 JUMPI PUSH2 0xD57 PUSH2 0x1703 JUMP JUMPDEST DUP10 PUSH1 0x3 DUP2 GT ISZERO PUSH2 0xD69 JUMPI PUSH2 0xD69 PUSH2 0x1703 JUMP JUMPDEST SUB PUSH2 0xD7C JUMPI POP POP PUSH1 0x3 DUP1 DUP6 ADD SLOAD SWAP1 PUSH2 0xE3A JUMP JUMPDEST PUSH1 0x1 DUP10 PUSH1 0x3 DUP2 GT ISZERO PUSH2 0xD90 JUMPI PUSH2 0xD90 PUSH2 0x1703 JUMP JUMPDEST EQ DUP1 ISZERO PUSH2 0xDAE JUMPI POP PUSH1 0x3 DUP4 PUSH1 0x3 DUP2 GT ISZERO PUSH2 0xDAC JUMPI PUSH2 0xDAC PUSH2 0x1703 JUMP JUMPDEST EQ JUMPDEST DUP1 PUSH2 0xDE6 JUMPI POP PUSH1 0x2 DUP10 PUSH1 0x3 DUP2 GT ISZERO PUSH2 0xDC8 JUMPI PUSH2 0xDC8 PUSH2 0x1703 JUMP JUMPDEST EQ DUP1 ISZERO PUSH2 0xDE6 JUMPI POP PUSH1 0x1 DUP4 PUSH1 0x3 DUP2 GT ISZERO PUSH2 0xDE4 JUMPI PUSH2 0xDE4 PUSH2 0x1703 JUMP JUMPDEST EQ JUMPDEST DUP1 PUSH2 0xE1E JUMPI POP PUSH1 0x3 DUP10 PUSH1 0x3 DUP2 GT ISZERO PUSH2 0xE00 JUMPI PUSH2 0xE00 PUSH2 0x1703 JUMP JUMPDEST EQ DUP1 ISZERO PUSH2 0xE1E JUMPI POP PUSH1 0x2 DUP4 PUSH1 0x3 DUP2 GT ISZERO PUSH2 0xE1C JUMPI PUSH2 0xE1C PUSH2 0x1703 JUMP JUMPDEST EQ JUMPDEST ISZERO PUSH2 0xE3A JUMPI PUSH1 0x3 DUP7 ADD SLOAD PUSH2 0xE33 SWAP1 PUSH1 0x2 PUSH2 0x18EA JUMP JUMPDEST SWAP2 POP PUSH1 0x1 SWAP1 POP JUMPDEST PUSH1 0x5 DUP7 ADD DUP1 SLOAD DUP11 SWAP2 SWAP1 PUSH1 0xFF NOT AND PUSH1 0x1 DUP4 PUSH1 0x3 DUP2 GT ISZERO PUSH2 0xE5B JUMPI PUSH2 0xE5B PUSH2 0x1703 JUMP JUMPDEST MUL OR SWAP1 SSTORE POP PUSH1 0x5 DUP7 ADD DUP1 SLOAD DUP5 SWAP2 SWAP1 PUSH2 0xFF00 NOT AND PUSH2 0x100 DUP4 PUSH1 0x3 DUP2 GT ISZERO PUSH2 0xE83 JUMPI PUSH2 0xE83 PUSH2 0x1703 JUMP JUMPDEST MUL OR SWAP1 SSTORE POP PUSH1 0x6 DUP7 ADD DUP3 SWAP1 SSTORE PUSH1 0x7 DUP7 ADD DUP1 SLOAD DUP3 SWAP2 SWAP1 PUSH1 0xFF NOT AND PUSH1 0x1 DUP4 PUSH1 0x3 DUP2 GT ISZERO PUSH2 0xEB0 JUMPI PUSH2 0xEB0 PUSH2 0x1703 JUMP JUMPDEST MUL OR SWAP1 SSTORE POP PUSH1 0x7 DUP7 ADD DUP1 SLOAD PUSH2 0xFF00 NOT AND PUSH2 0x100 OR SWAP1 SSTORE NUMBER PUSH1 0x8 DUP8 ADD SSTORE CALLER PUSH1 0x0 SWAP1 DUP2 MSTORE PUSH1 0x4 PUSH1 0x20 MSTORE PUSH1 0x40 DUP2 KECCAK256 DUP2 SWAP1 SSTORE PUSH1 0x3 DUP8 ADD SLOAD PUSH1 0x5 DUP1 SLOAD SWAP2 SWAP3 SWAP1 SWAP2 PUSH2 0xEF6 SWAP1 DUP5 SWAP1 PUSH2 0x181D JUMP JUMPDEST SWAP1 SWAP2 SSTORE POP POP DUP2 ISZERO PUSH2 0xFD2 JUMPI DUP2 SELFBALANCE LT ISZERO PUSH2 0xF48 JUMPI PUSH1 0x40 MLOAD PUSH3 0x461BCD PUSH1 0xE5 SHL DUP2 MSTORE PUSH1 0x20 PUSH1 0x4 DUP3 ADD MSTORE PUSH1 0x14 PUSH1 0x24 DUP3 ADD MSTORE PUSH20 0x436F6E74726163742062616C616E6365206C6F77 PUSH1 0x60 SHL PUSH1 0x44 DUP3 ADD MSTORE PUSH1 0x64 ADD PUSH2 0x637 JUMP JUMPDEST PUSH1 0x40 MLOAD PUSH1 0x0 SWAP1 CALLER SWAP1 DUP5 SWAP1 DUP4 DUP2 DUP2 DUP2 DUP6 DUP8 GAS CALL SWAP3 POP POP POP RETURNDATASIZE DUP1 PUSH1 0x0 DUP2 EQ PUSH2 0xF8A JUMPI PUSH1 0x40 MLOAD SWAP2 POP PUSH1 0x1F NOT PUSH1 0x3F RETURNDATASIZE ADD AND DUP3 ADD PUSH1 0x40 MSTORE RETURNDATASIZE DUP3 MSTORE RETURNDATASIZE PUSH1 0x0 PUSH1 0x20 DUP5 ADD RETURNDATACOPY PUSH2 0xF8F JUMP JUMPDEST PUSH1 0x60 SWAP2 POP JUMPDEST POP POP SWAP1 POP DUP1 PUSH2 0xFD0 JUMPI PUSH1 0x40 MLOAD PUSH3 0x461BCD PUSH1 0xE5 SHL DUP2 MSTORE PUSH1 0x20 PUSH1 0x4 DUP3 ADD MSTORE PUSH1 0xD PUSH1 0x24 DUP3 ADD MSTORE PUSH13 0x14185E5BDD5D0819985A5B1959 PUSH1 0x9A SHL PUSH1 0x44 DUP3 ADD MSTORE PUSH1 0x64 ADD PUSH2 0x637 JUMP JUMPDEST POP JUMPDEST DUP7 CALLER PUSH1 0x1 PUSH1 0x1 PUSH1 0xA0 SHL SUB AND PUSH32 0xFE57ECD9A49C183CABFEFC32D62783A27C344846C70C1EE5280B69581D86176C DUP12 DUP7 DUP6 DUP8 PUSH1 0x40 MLOAD PUSH2 0x1012 SWAP5 SWAP4 SWAP3 SWAP2 SWAP1 PUSH2 0x1901 JUMP JUMPDEST PUSH1 0x40 MLOAD DUP1 SWAP2 SUB SWAP1 LOG3 POP POP POP POP POP POP POP POP POP JUMP JUMPDEST PUSH1 0x0 CALLVALUE GT PUSH2 0x1075 JUMPI PUSH1 0x40 MLOAD PUSH3 0x461BCD PUSH1 0xE5 SHL DUP2 MSTORE PUSH1 0x20 PUSH1 0x4 DUP3 ADD MSTORE PUSH1 0x1D PUSH1 0x24 DUP3 ADD MSTORE PUSH32 0x50617274696369706174696F6E20666565206D757374206265203E2030000000 PUSH1 0x44 DUP3 ADD MSTORE PUSH1 0x64 ADD PUSH2 0x637 JUMP JUMPDEST CALLER PUSH1 0x0 SWAP1 DUP2 MSTORE PUSH1 0x4 PUSH1 0x20 MSTORE PUSH1 0x40 SWAP1 KECCAK256 SLOAD DUP1 ISZERO DUP1 PUSH2 0x10A8 JUMPI POP PUSH1 0x0 DUP2 DUP2 MSTORE PUSH1 0x2 PUSH1 0x20 MSTORE PUSH1 0x40 SWAP1 KECCAK256 PUSH1 0x7 ADD SLOAD PUSH2 0x100 SWAP1 DIV PUSH1 0xFF AND JUMPDEST PUSH2 0x10EB JUMPI PUSH1 0x40 MLOAD PUSH3 0x461BCD PUSH1 0xE5 SHL DUP2 MSTORE PUSH1 0x20 PUSH1 0x4 DUP3 ADD MSTORE PUSH1 0x14 PUSH1 0x24 DUP3 ADD MSTORE PUSH20 0x46696E6973682070726576696F75732067616D65 PUSH1 0x60 SHL PUSH1 0x44 DUP3 ADD MSTORE PUSH1 0x64 ADD PUSH2 0x637 JUMP JUMPDEST PUSH1 0x0 PUSH2 0x10F7 CALLVALUE SELFBALANCE PUSH2 0x181D JUMP JUMPDEST SWAP1 POP CALLVALUE PUSH1 0x5 SLOAD PUSH2 0x1107 SWAP2 SWAP1 PUSH2 0x18D7 JUMP JUMPDEST DUP2 LT ISZERO PUSH2 0x1156 JUMPI PUSH1 0x40 MLOAD PUSH3 0x461BCD PUSH1 0xE5 SHL DUP2 MSTORE PUSH1 0x20 PUSH1 0x4 DUP3 ADD MSTORE PUSH1 0x1C PUSH1 0x24 DUP3 ADD MSTORE PUSH32 0x496E73756666696369656E7420686F757365206C697175696469747900000000 PUSH1 0x44 DUP3 ADD MSTORE PUSH1 0x64 ADD PUSH2 0x637 JUMP JUMPDEST PUSH1 0x1 DUP1 SLOAD PUSH1 0x0 SWAP2 DUP3 PUSH2 0x1167 DUP4 PUSH2 0x1846 JUMP JUMPDEST SWAP1 SWAP2 SSTORE POP PUSH1 0x0 DUP2 DUP2 MSTORE PUSH1 0x2 PUSH1 0x20 DUP2 DUP2 MSTORE PUSH1 0x40 DUP1 DUP5 KECCAK256 DUP6 DUP2 SSTORE PUSH1 0x1 DUP1 DUP3 ADD DUP1 SLOAD PUSH1 0x1 PUSH1 0x1 PUSH1 0xA0 SHL SUB NOT AND CALLER SWAP1 DUP2 OR SWAP1 SWAP2 SSTORE SWAP5 DUP3 ADD DUP12 SWAP1 SSTORE CALLVALUE PUSH1 0x3 DUP1 DUP5 ADD DUP3 SWAP1 SSTORE NUMBER PUSH1 0x4 DUP1 DUP7 ADD SWAP2 SWAP1 SWAP2 SSTORE PUSH1 0x5 DUP1 DUP7 ADD DUP1 SLOAD PUSH2 0xFFFF NOT SWAP1 DUP2 AND SWAP1 SWAP2 SSTORE PUSH1 0x6 DUP8 ADD DUP12 SWAP1 SSTORE PUSH1 0x7 DUP8 ADD DUP1 SLOAD SWAP1 SWAP2 AND SWAP1 SSTORE PUSH1 0x8 DUP7 ADD DUP11 SWAP1 SSTORE SWAP8 DUP10 MSTORE DUP7 MSTORE DUP5 DUP9 KECCAK256 DUP10 SWAP1 SSTORE DUP6 MSTORE SWAP3 DUP7 KECCAK256 DUP1 SLOAD SWAP2 DUP3 ADD DUP2 SSTORE DUP7 MSTORE SWAP3 DUP6 KECCAK256 SWAP1 SWAP3 ADD DUP6 SWAP1 SSTORE DUP3 SLOAD SWAP5 SWAP6 POP SWAP1 SWAP4 SWAP1 SWAP3 SWAP1 PUSH2 0x1211 SWAP1 DUP5 SWAP1 PUSH2 0x18D7 JUMP JUMPDEST SWAP1 SWAP2 SSTORE POP POP PUSH1 0x40 MLOAD CALLVALUE DUP2 MSTORE DUP3 SWAP1 CALLER SWAP1 PUSH32 0x44AB6335065CB21D8D31AAF52F3152DDA1ACB41265BCAEEEE4C522CCC2240A9D SWAP1 PUSH1 0x20 ADD PUSH1 0x40 MLOAD DUP1 SWAP2 SUB SWAP1 LOG3 POP POP POP POP POP JUMP JUMPDEST PUSH1 0x60 DUP2 PUSH1 0x0 SUB PUSH2 0x1296 JUMPI PUSH1 0x40 DUP1 MLOAD PUSH1 0x0 DUP1 DUP3 MSTORE PUSH1 0x20 DUP3 ADD SWAP1 SWAP3 MSTORE SWAP1 PUSH2 0x128F JUMP JUMPDEST PUSH2 0x127C PUSH2 0x155E JUMP JUMPDEST DUP2 MSTORE PUSH1 0x20 ADD SWAP1 PUSH1 0x1 SWAP1 SUB SWAP1 DUP2 PUSH2 0x1274 JUMPI SWAP1 POP JUMPDEST POP SWAP3 SWAP2 POP POP JUMP JUMPDEST PUSH1 0x1E DUP3 GT ISZERO PUSH2 0x12A4 JUMPI PUSH1 0x1E SWAP2 POP JUMPDEST PUSH1 0x0 PUSH1 0x1 DUP1 SLOAD PUSH2 0x12B4 SWAP2 SWAP1 PUSH2 0x181D JUMP JUMPDEST SWAP1 POP DUP1 PUSH1 0x0 SUB PUSH2 0x12F7 JUMPI PUSH1 0x40 DUP1 MLOAD PUSH1 0x0 DUP1 DUP3 MSTORE PUSH1 0x20 DUP3 ADD SWAP1 SWAP3 MSTORE SWAP1 PUSH2 0x12EF JUMP JUMPDEST PUSH2 0x12DC PUSH2 0x155E JUMP JUMPDEST DUP2 MSTORE PUSH1 0x20 ADD SWAP1 PUSH1 0x1 SWAP1 SUB SWAP1 DUP2 PUSH2 0x12D4 JUMPI SWAP1 POP JUMPDEST POP SWAP4 SWAP3 POP POP POP JUMP JUMPDEST PUSH1 0x0 DUP4 DUP3 LT ISZERO PUSH2 0x1308 JUMPI PUSH1 0x1 PUSH2 0x131D JUMP JUMPDEST PUSH2 0x1312 DUP5 DUP4 PUSH2 0x181D JUMP JUMPDEST PUSH2 0x131D SWAP1 PUSH1 0x1 PUSH2 0x18D7 JUMP JUMPDEST SWAP1 POP PUSH1 0x0 PUSH2 0x132B DUP3 DUP5 PUSH2 0x181D JUMP JUMPDEST PUSH2 0x1336 SWAP1 PUSH1 0x1 PUSH2 0x18D7 JUMP JUMPDEST SWAP1 POP DUP1 PUSH8 0xFFFFFFFFFFFFFFFF DUP2 GT ISZERO PUSH2 0x1351 JUMPI PUSH2 0x1351 PUSH2 0x17F1 JUMP JUMPDEST PUSH1 0x40 MLOAD SWAP1 DUP1 DUP3 MSTORE DUP1 PUSH1 0x20 MUL PUSH1 0x20 ADD DUP3 ADD PUSH1 0x40 MSTORE DUP1 ISZERO PUSH2 0x138A JUMPI DUP2 PUSH1 0x20 ADD JUMPDEST PUSH2 0x1377 PUSH2 0x155E JUMP JUMPDEST DUP2 MSTORE PUSH1 0x20 ADD SWAP1 PUSH1 0x1 SWAP1 SUB SWAP1 DUP2 PUSH2 0x136F JUMPI SWAP1 POP JUMPDEST POP SWAP4 POP PUSH1 0x0 DUP4 JUMPDEST DUP4 DUP2 LT PUSH2 0x14B4 JUMPI PUSH1 0x0 DUP2 DUP2 MSTORE PUSH1 0x2 PUSH1 0x20 SWAP1 DUP2 MSTORE PUSH1 0x40 SWAP2 DUP3 SWAP1 KECCAK256 DUP3 MLOAD PUSH2 0x120 DUP2 ADD DUP5 MSTORE DUP2 SLOAD DUP2 MSTORE PUSH1 0x1 DUP3 ADD SLOAD PUSH1 0x1 PUSH1 0x1 PUSH1 0xA0 SHL SUB AND SWAP3 DUP2 ADD SWAP3 SWAP1 SWAP3 MSTORE PUSH1 0x3 DUP1 DUP3 ADD SLOAD SWAP4 DUP4 ADD SWAP4 SWAP1 SWAP4 MSTORE PUSH1 0x5 DUP2 ADD SLOAD SWAP1 SWAP3 PUSH1 0x60 DUP4 ADD SWAP2 PUSH1 0xFF AND SWAP1 DUP2 GT ISZERO PUSH2 0x13F8 JUMPI PUSH2 0x13F8 PUSH2 0x1703 JUMP JUMPDEST PUSH1 0xFF AND DUP2 MSTORE PUSH1 0x20 ADD DUP3 PUSH1 0x5 ADD PUSH1 0x1 SWAP1 SLOAD SWAP1 PUSH2 0x100 EXP SWAP1 DIV PUSH1 0xFF AND PUSH1 0x3 DUP2 GT ISZERO PUSH2 0x1423 JUMPI PUSH2 0x1423 PUSH2 0x1703 JUMP JUMPDEST PUSH1 0xFF SWAP1 DUP2 AND DUP3 MSTORE PUSH1 0x7 DUP5 ADD SLOAD PUSH1 0x20 SWAP1 SWAP3 ADD SWAP2 AND PUSH1 0x3 DUP2 GT ISZERO PUSH2 0x1447 JUMPI PUSH2 0x1447 PUSH2 0x1703 JUMP JUMPDEST PUSH1 0xFF AND DUP2 MSTORE PUSH1 0x6 DUP4 ADD SLOAD PUSH1 0x20 DUP3 ADD MSTORE PUSH1 0x4 DUP4 ADD SLOAD PUSH1 0x40 DUP3 ADD MSTORE PUSH1 0x8 DUP4 ADD SLOAD PUSH1 0x60 SWAP1 SWAP2 ADD MSTORE DUP8 DUP5 PUSH2 0x1476 DUP2 PUSH2 0x1846 JUMP JUMPDEST SWAP6 POP DUP2 MLOAD DUP2 LT PUSH2 0x1488 JUMPI PUSH2 0x1488 PUSH2 0x1830 JUMP JUMPDEST PUSH1 0x20 MUL PUSH1 0x20 ADD ADD DUP2 SWAP1 MSTORE POP DUP2 PUSH1 0x1 SUB PUSH2 0x14A1 JUMPI POP PUSH2 0x14B4 JUMP JUMPDEST POP DUP1 PUSH2 0x14AC DUP2 PUSH2 0x185F JUMP JUMPDEST SWAP2 POP POP PUSH2 0x1391 JUMP JUMPDEST POP POP POP POP POP SWAP2 SWAP1 POP JUMP JUMPDEST PUSH1 0x0 SLOAD PUSH1 0x1 PUSH1 0x1 PUSH1 0xA0 SHL SUB AND CALLER EQ PUSH2 0x14E8 JUMPI PUSH1 0x40 MLOAD PUSH3 0x461BCD PUSH1 0xE5 SHL DUP2 MSTORE PUSH1 0x4 ADD PUSH2 0x637 SWAP1 PUSH2 0x1876 JUMP JUMPDEST PUSH1 0x0 CALLVALUE GT PUSH2 0x1527 JUMPI PUSH1 0x40 MLOAD PUSH3 0x461BCD PUSH1 0xE5 SHL DUP2 MSTORE PUSH1 0x20 PUSH1 0x4 DUP3 ADD MSTORE PUSH1 0xC PUSH1 0x24 DUP3 ADD MSTORE PUSH12 0x16995C9BC819195C1BDCDA5D PUSH1 0xA2 SHL PUSH1 0x44 DUP3 ADD MSTORE PUSH1 0x64 ADD PUSH2 0x637 JUMP JUMPDEST PUSH1 0x40 MLOAD CALLVALUE DUP2 MSTORE CALLER SWAP1 PUSH32 0xE1FFFCC4923D04B559F4D29A8BFC6CDA04EB5B0D3C460751C2402C5C5CC9109C SWAP1 PUSH1 0x20 ADD PUSH1 0x40 MLOAD DUP1 SWAP2 SUB SWAP1 LOG2 JUMP JUMPDEST PUSH1 0x40 MLOAD DUP1 PUSH2 0x120 ADD PUSH1 0x40 MSTORE DUP1 PUSH1 0x0 DUP2 MSTORE PUSH1 0x20 ADD PUSH1 0x0 PUSH1 0x1 PUSH1 0x1 PUSH1 0xA0 SHL SUB AND DUP2 MSTORE PUSH1 0x20 ADD PUSH1 0x0 DUP2 MSTORE PUSH1 0x20 ADD PUSH1 0x0 PUSH1 0xFF AND DUP2 MSTORE PUSH1 0x20 ADD PUSH1 0x0 PUSH1 0xFF AND DUP2 MSTORE PUSH1 0x20 ADD PUSH1 0x0 PUSH1 0xFF AND DUP2 MSTORE PUSH1 0x20 ADD PUSH1 0x0 DUP2 MSTORE PUSH1 0x20 ADD PUSH1 0x0 DUP2 MSTORE PUSH1 0x20 ADD PUSH1 0x0 DUP2 MSTORE POP SWAP1 JUMP JUMPDEST DUP1 CALLDATALOAD PUSH1 0x1 PUSH1 0x1 PUSH1 0xA0 SHL SUB DUP2 AND DUP2 EQ PUSH2 0x15D3 JUMPI PUSH1 0x0 DUP1 REVERT JUMPDEST SWAP2 SWAP1 POP JUMP JUMPDEST PUSH1 0x0 DUP1 PUSH1 0x40 DUP4 DUP6 SUB SLT ISZERO PUSH2 0x15EB JUMPI PUSH1 0x0 DUP1 REVERT JUMPDEST PUSH2 0x15F4 DUP4 PUSH2 0x15BC JUMP JUMPDEST SWAP5 PUSH1 0x20 SWAP4 SWAP1 SWAP4 ADD CALLDATALOAD SWAP4 POP POP POP JUMP JUMPDEST DUP1 MLOAD DUP3 MSTORE PUSH1 0x1 DUP1 PUSH1 0xA0 SHL SUB PUSH1 0x20 DUP3 ADD MLOAD AND PUSH1 0x20 DUP4 ADD MSTORE PUSH1 0x40 DUP2 ADD MLOAD PUSH1 0x40 DUP4 ADD MSTORE PUSH1 0xFF PUSH1 0x60 DUP3 ADD MLOAD AND PUSH1 0x60 DUP4 ADD MSTORE PUSH1 0x80 DUP2 ADD MLOAD PUSH2 0x1643 PUSH1 0x80 DUP5 ADD DUP3 PUSH1 0xFF AND SWAP1 MSTORE JUMP JUMPDEST POP PUSH1 0xA0 DUP2 ADD MLOAD PUSH2 0x1658 PUSH1 0xA0 DUP5 ADD DUP3 PUSH1 0xFF AND SWAP1 MSTORE JUMP JUMPDEST POP PUSH1 0xC0 DUP2 DUP2 ADD MLOAD SWAP1 DUP4 ADD MSTORE PUSH1 0xE0 DUP1 DUP3 ADD MLOAD SWAP1 DUP4 ADD MSTORE PUSH2 0x100 SWAP1 DUP2 ADD MLOAD SWAP2 ADD MSTORE JUMP JUMPDEST PUSH1 0x20 DUP1 DUP3 MSTORE DUP3 MLOAD DUP3 DUP3 ADD DUP2 SWAP1 MSTORE PUSH1 0x0 SWAP2 SWAP1 DUP5 DUP3 ADD SWAP1 PUSH1 0x40 DUP6 ADD SWAP1 DUP5 JUMPDEST DUP2 DUP2 LT ISZERO PUSH2 0x16BC JUMPI PUSH2 0x16A8 DUP4 DUP6 MLOAD PUSH2 0x1602 JUMP JUMPDEST SWAP3 DUP5 ADD SWAP3 PUSH2 0x120 SWAP3 SWAP1 SWAP3 ADD SWAP2 PUSH1 0x1 ADD PUSH2 0x1695 JUMP JUMPDEST POP SWAP1 SWAP7 SWAP6 POP POP POP POP POP POP JUMP JUMPDEST PUSH1 0x0 PUSH1 0x20 DUP3 DUP5 SUB SLT ISZERO PUSH2 0x16DA JUMPI PUSH1 0x0 DUP1 REVERT JUMPDEST PUSH2 0x16E3 DUP3 PUSH2 0x15BC JUMP JUMPDEST SWAP4 SWAP3 POP POP POP JUMP JUMPDEST PUSH1 0x0 PUSH1 0x20 DUP3 DUP5 SUB SLT ISZERO PUSH2 0x16FC JUMPI PUSH1 0x0 DUP1 REVERT JUMPDEST POP CALLDATALOAD SWAP2 SWAP1 POP JUMP JUMPDEST PUSH4 0x4E487B71 PUSH1 0xE0 SHL PUSH1 0x0 MSTORE PUSH1 0x21 PUSH1 0x4 MSTORE PUSH1 0x24 PUSH1 0x0 REVERT JUMPDEST PUSH1 0x4 DUP2 LT PUSH2 0x1737 JUMPI PUSH4 0x4E487B71 PUSH1 0xE0 SHL PUSH1 0x0 MSTORE PUSH1 0x21 PUSH1 0x4 MSTORE PUSH1 0x24 PUSH1 0x0 REVERT JUMPDEST POP JUMP JUMPDEST DUP12 DUP2 MSTORE PUSH1 0x1 PUSH1 0x1 PUSH1 0xA0 SHL SUB DUP12 AND PUSH1 0x20 DUP3 ADD MSTORE PUSH1 0x40 DUP2 ADD DUP11 SWAP1 MSTORE PUSH1 0x60 DUP2 ADD DUP10 SWAP1 MSTORE PUSH1 0x80 DUP2 ADD DUP9 SWAP1 MSTORE PUSH2 0x160 DUP2 ADD PUSH2 0x176F DUP9 PUSH2 0x1719 JUMP JUMPDEST DUP8 PUSH1 0xA0 DUP4 ADD MSTORE PUSH2 0x177E DUP8 PUSH2 0x1719 JUMP JUMPDEST DUP7 PUSH1 0xC0 DUP4 ADD MSTORE DUP6 PUSH1 0xE0 DUP4 ADD MSTORE PUSH2 0x1793 DUP6 PUSH2 0x1719 JUMP JUMPDEST PUSH2 0x100 DUP3 ADD SWAP5 SWAP1 SWAP5 MSTORE SWAP2 ISZERO ISZERO PUSH2 0x120 DUP4 ADD MSTORE PUSH2 0x140 SWAP1 SWAP2 ADD MSTORE SWAP9 SWAP8 POP POP POP POP POP POP POP POP JUMP JUMPDEST DUP3 ISZERO ISZERO DUP2 MSTORE PUSH2 0x140 DUP2 ADD PUSH2 0x16E3 PUSH1 0x20 DUP4 ADD DUP5 PUSH2 0x1602 JUMP JUMPDEST PUSH1 0x0 DUP1 PUSH1 0x40 DUP4 DUP6 SUB SLT ISZERO PUSH2 0x17E2 JUMPI PUSH1 0x0 DUP1 REVERT JUMPDEST DUP3 CALLDATALOAD PUSH1 0x4 DUP2 LT PUSH2 0x15F4 JUMPI PUSH1 0x0 DUP1 REVERT JUMPDEST PUSH4 0x4E487B71 PUSH1 0xE0 SHL PUSH1 0x0 MSTORE PUSH1 0x41 PUSH1 0x4 MSTORE PUSH1 0x24 PUSH1 0x0 REVERT JUMPDEST PUSH4 0x4E487B71 PUSH1 0xE0 SHL PUSH1 0x0 MSTORE PUSH1 0x11 PUSH1 0x4 MSTORE PUSH1 0x24 PUSH1 0x0 REVERT JUMPDEST DUP2 DUP2 SUB DUP2 DUP2 GT ISZERO PUSH2 0x607 JUMPI PUSH2 0x607 PUSH2 0x1807 JUMP JUMPDEST PUSH4 0x4E487B71 PUSH1 0xE0 SHL PUSH1 0x0 MSTORE PUSH1 0x32 PUSH1 0x4 MSTORE PUSH1 0x24 PUSH1 0x0 REVERT JUMPDEST PUSH1 0x0 PUSH1 0x1 DUP3 ADD PUSH2 0x1858 JUMPI PUSH2 0x1858 PUSH2 0x1807 JUMP JUMPDEST POP PUSH1 0x1 ADD SWAP1 JUMP JUMPDEST PUSH1 0x0 DUP2 PUSH2 0x186E JUMPI PUSH2 0x186E PUSH2 0x1807 JUMP JUMPDEST POP PUSH1 0x0 NOT ADD SWAP1 JUMP JUMPDEST PUSH1 0x20 DUP1 DUP3 MSTORE PUSH1 0x9 SWAP1 DUP3 ADD MSTORE PUSH9 0x2737BA1037BBB732B9 PUSH1 0xB9 SHL PUSH1 0x40 DUP3 ADD MSTORE PUSH1 0x60 ADD SWAP1 JUMP JUMPDEST PUSH2 0x18A2 DUP4 PUSH2 0x1719 JUMP JUMPDEST PUSH1 0xF8 SWAP3 SWAP1 SWAP3 SHL DUP3 MSTORE PUSH1 0x1 DUP3 ADD MSTORE PUSH1 0x21 ADD SWAP1 JUMP JUMPDEST PUSH1 0x0 DUP3 PUSH2 0x18D2 JUMPI PUSH4 0x4E487B71 PUSH1 0xE0 SHL PUSH1 0x0 MSTORE PUSH1 0x12 PUSH1 0x4 MSTORE PUSH1 0x24 PUSH1 0x0 REVERT JUMPDEST POP MOD SWAP1 JUMP JUMPDEST DUP1 DUP3 ADD DUP1 DUP3 GT ISZERO PUSH2 0x607 JUMPI PUSH2 0x607 PUSH2 0x1807 JUMP JUMPDEST DUP1 DUP3 MUL DUP2 ISZERO DUP3 DUP3 DIV DUP5 EQ OR PUSH2 0x607 JUMPI PUSH2 0x607 PUSH2 0x1807 JUMP JUMPDEST PUSH1 0x80 DUP2 ADD PUSH2 0x190E DUP7 PUSH2 0x1719 JUMP JUMPDEST DUP6 DUP3 MSTORE PUSH2 0x191A DUP6 PUSH2 0x1719 JUMP JUMPDEST DUP5 PUSH1 0x20 DUP4 ADD MSTORE PUSH2 0x1929 DUP5 PUSH2 0x1719 JUMP JUMPDEST PUSH1 0x40 DUP3 ADD SWAP4 SWAP1 SWAP4 MSTORE PUSH1 0x60 ADD MSTORE SWAP3 SWAP2 POP POP JUMP INVALID LOG2 PUSH5 0x6970667358 0x22 SLT KECCAK256 CALLER PUSH16 0x2C898D10CBAA2F664E06018AB02278C0 0xD2 DUP11 DUP6 EXTCODECOPY JUMPDEST PUSH21 0x99D5080D337E7B5C64736F6C634300081400330000 "},"methodIdentifiers":{"activeGameOf(address)":"044a9758","commitMove(bytes32)":"a9ea37b6","deposit()":"d0e30db0","forfeitCurrentGame()":"a18556bc","gamesById(uint256)":"0ea92f35","getCurrentGame(address)":"447b2a06","getLatestGames(uint256)":"ae55a637","getLatestGamesOf(address,uint256)":"0048591c","nextGameId()":"b135bbb0","owner()":"8da5cb5b","reservedHouseLiquidity()":"c782076f","revealMove(uint8,bytes32)":"a8f7d442","totalGames()":"2c4e591b","withdraw(uint256)":"2e1a7d4d","withdrawAllUnreserved()":"1824a1c1"}}}}}