{
  "_format": "hh-sol-artifact-1",
  "contractName": "KaiaGame",
  "sourceName": "contracts/KaiaGame.sol",
  "abi": [
    {
      "inputs": [],
      "stateMutability": "nonpayable",
      "type": "constructor"
    },
    {
      "anonymous": false,
      "inputs": [
        {
          "indexed": true,
          "internalType": "address",
          "name": "from",
          "type": "address"
        },
        {
          "indexed": false,
          "internalType": "uint256",
          "name": "amount",
          "type": "uint256"
        }
      ],
      "name": "Deposit",
      "type": "event"
    },
    {
      "anonymous": false,
      "inputs": [
        {
          "indexed": true,
          "internalType": "address",
          "name": "player",
          "type": "address"
        },
        {
          "indexed": true,
          "internalType": "uint256",
          "name": "gameId",
          "type": "uint256"
        }
      ],
      "name": "GameForfeited",
      "type": "event"
    },
    {
      "anonymous": false,
      "inputs": [
        {
          "indexed": true,
          "internalType": "address",
          "name": "player",
          "type": "address"
        },
        {
          "indexed": true,
          "internalType": "uint256",
          "name": "gameId",
          "type": "uint256"
        },
        {
          "indexed": false,
          "internalType": "uint256",
          "name": "participationFee",
          "type": "uint256"
        }
      ],
      "name": "MoveCommitted",
      "type": "event"
    },
    {
      "anonymous": false,
      "inputs": [
        {
          "indexed": true,
          "internalType": "address",
          "name": "player",
          "type": "address"
        },
        {
          "indexed": true,
          "internalType": "uint256",
          "name": "gameId",
          "type": "uint256"
        },
        {
          "indexed": false,
          "internalType": "enum KaiaGame.Move",
          "name": "userMove",
          "type": "uint8"
        },
        {
          "indexed": false,
          "internalType": "enum KaiaGame.Move",
          "name": "botMove",
          "type": "uint8"
        },
        {
          "indexed": false,
          "internalType": "enum KaiaGame.Winner",
          "name": "winner",
          "type": "uint8"
        },
        {
          "indexed": false,
          "internalType": "uint256",
          "name": "prizeMoney",
          "type": "uint256"
        }
      ],
      "name": "MoveRevealed",
      "type": "event"
    },
    {
      "anonymous": false,
      "inputs": [
        {
          "indexed": true,
          "internalType": "address",
          "name": "to",
          "type": "address"
        },
        {
          "indexed": false,
          "internalType": "uint256",
          "name": "amount",
          "type": "uint256"
        }
      ],
      "name": "Withdraw",
      "type": "event"
    },
    {
      "inputs": [
        {
          "internalType": "address",
          "name": "",
          "type": "address"
        }
      ],
      "name": "activeGameOf",
      "outputs": [
        {
          "internalType": "uint256",
          "name": "",
          "type": "uint256"
        }
      ],
      "stateMutability": "view",
      "type": "function"
    },
    {
      "inputs": [
        {
          "internalType": "bytes32",
          "name": "_commitHash",
          "type": "bytes32"
        }
      ],
      "name": "commitMove",
      "outputs": [],
      "stateMutability": "payable",
      "type": "function"
    },
    {
      "inputs": [],
      "name": "deposit",
      "outputs": [],
      "stateMutability": "payable",
      "type": "function"
    },
    {
      "inputs": [],
      "name": "forfeitCurrentGame",
      "outputs": [],
      "stateMutability": "nonpayable",
      "type": "function"
    },
    {
      "inputs": [
        {
          "internalType": "uint256",
          "name": "",
          "type": "uint256"
        }
      ],
      "name": "gamesById",
      "outputs": [
        {
          "internalType": "uint256",
          "name": "id",
          "type": "uint256"
        },
        {
          "internalType": "address",
          "name": "player",
          "type": "address"
        },
        {
          "internalType": "bytes32",
          "name": "commitHash",
          "type": "bytes32"
        },
        {
          "internalType": "uint256",
          "name": "participationFee",
          "type": "uint256"
        },
        {
          "internalType": "uint256",
          "name": "commitBlock",
          "type": "uint256"
        },
        {
          "internalType": "enum KaiaGame.Move",
          "name": "userMove",
          "type": "uint8"
        },
        {
          "internalType": "enum KaiaGame.Move",
          "name": "botMove",
          "type": "uint8"
        },
        {
          "internalType": "uint256",
          "name": "prizeMoney",
          "type": "uint256"
        },
        {
          "internalType": "enum KaiaGame.Winner",
          "name": "winner",
          "type": "uint8"
        },
        {
          "internalType": "bool",
          "name": "claimed",
          "type": "bool"
        },
        {
          "internalType": "uint256",
          "name": "revealBlock",
          "type": "uint256"
        }
      ],
      "stateMutability": "view",
      "type": "function"
    },
    {
      "inputs": [
        {
          "internalType": "address",
          "name": "player",
          "type": "address"
        }
      ],
      "name": "getCurrentGame",
      "outputs": [
        {
          "internalType": "bool",
          "name": "exists",
          "type": "bool"
        },
        {
          "components": [
            {
              "internalType": "uint256",
              "name": "id",
              "type": "uint256"
            },
            {
              "internalType": "address",
              "name": "player",
              "type": "address"
            },
            {
              "internalType": "uint256",
              "name": "participationFee",
              "type": "uint256"
            },
            {
              "internalType": "uint8",
              "name": "userMove",
              "type": "uint8"
            },
            {
              "internalType": "uint8",
              "name": "botMove",
              "type": "uint8"
            },
            {
              "internalType": "uint8",
              "name": "winner",
              "type": "uint8"
            },
            {
              "internalType": "uint256",
              "name": "prizeMoney",
              "type": "uint256"
            },
            {
              "internalType": "uint256",
              "name": "commitBlock",
              "type": "uint256"
            },
            {
              "internalType": "uint256",
              "name": "revealBlock",
              "type": "uint256"
            }
          ],
          "internalType": "struct KaiaGame.GameView",
          "name": "v",
          "type": "tuple"
        }
      ],
      "stateMutability": "view",
      "type": "function"
    },
    {
      "inputs": [
        {
          "internalType": "uint256",
          "name": "n",
          "type": "uint256"
        }
      ],
      "name": "getLatestGames",
      "outputs": [
        {
          "components": [
            {
              "internalType": "uint256",
              "name": "id",
              "type": "uint256"
            },
            {
              "internalType": "address",
              "name": "player",
              "type": "address"
            },
            {
              "internalType": "uint256",
              "name": "participationFee",
              "type": "uint256"
            },
            {
              "internalType": "uint8",
              "name": "userMove",
              "type": "uint8"
            },
            {
              "internalType": "uint8",
              "name": "botMove",
              "type": "uint8"
            },
            {
              "internalType": "uint8",
              "name": "winner",
              "type": "uint8"
            },
            {
              "internalType": "uint256",
              "name": "prizeMoney",
              "type": "uint256"
            },
            {
              "internalType": "uint256",
              "name": "commitBlock",
              "type": "uint256"
            },
            {
              "internalType": "uint256",
              "name": "revealBlock",
              "type": "uint256"
            }
          ],
          "internalType": "struct KaiaGame.GameView[]",
          "name": "out",
          "type": "tuple[]"
        }
      ],
      "stateMutability": "view",
      "type": "function"
    },
    {
      "inputs": [
        {
          "internalType": "address",
          "name": "player",
          "type": "address"
        },
        {
          "internalType": "uint256",
          "name": "n",
          "type": "uint256"
        }
      ],
      "name": "getLatestGamesOf",
      "outputs": [
        {
          "components": [
            {
              "internalType": "uint256",
              "name": "id",
              "type": "uint256"
            },
            {
              "internalType": "address",
              "name": "player",
              "type": "address"
            },
            {
              "internalType": "uint256",
              "name": "participationFee",
              "type": "uint256"
            },
            {
              "internalType": "uint8",
              "name": "userMove",
              "type": "uint8"
            },
            {
              "internalType": "uint8",
              "name": "botMove",
              "type": "uint8"
            },
            {
              "internalType": "uint8",
              "name": "winner",
              "type": "uint8"
            },
            {
              "internalType": "uint256",
              "name": "prizeMoney",
              "type": "uint256"
            },
            {
              "internalType": "uint256",
              "name": "commitBlock",
              "type": "uint256"
            },
            {
              "internalType": "uint256",
              "name": "revealBlock",
              "type": "uint256"
            }
          ],
          "internalType": "struct KaiaGame.GameView[]",
          "name": "out",
          "type": "tuple[]"
        }
      ],
      "stateMutability": "view",
      "type": "function"
    },
    {
      "inputs": [],
      "name": "nextGameId",
      "outputs": [
        {
          "internalType": "uint256",
          "name": "",
          "type": "uint256"
        }
      ],
      "stateMutability": "view",
      "type": "function"
    },
    {
      "inputs": [],
      "name": "owner",
      "outputs": [
        {
          "internalType": "address",
          "name": "",
          "type": "address"
        }
      ],
      "stateMutability": "view",
      "type": "function"
    },
    {
      "inputs": [],
      "name": "reservedHouseLiquidity",
      "outputs": [
        {
          "internalType": "uint256",
          "name": "",
          "type": "uint256"
        }
      ],
      "stateMutability": "view",
      "type": "function"
    },
    {
      "inputs": [
        {
          "internalType": "enum KaiaGame.Move",
          "name": "_move",
          "type": "uint8"
        },
        {
          "internalType": "bytes32",
          "name": "_salt",
          "type": "bytes32"
        }
      ],
      "name": "revealMove",
      "outputs": [],
      "stateMutability": "nonpayable",
      "type": "function"
    },
    {
      "inputs": [],
      "name": "totalGames",
      "outputs": [
        {
          "internalType": "uint256",
          "name": "",
          "type": "uint256"
        }
      ],
      "stateMutability": "view",
      "type": "function"
    },
    {
      "inputs": [
        {
          "internalType": "uint256",
          "name": "amount",
          "type": "uint256"
        }
      ],
      "name": "withdraw",
      "outputs": [],
      "stateMutability": "nonpayable",
      "type": "function"
    },
    {
      "inputs": [],
      "name": "withdrawAllUnreserved",
      "outputs": [],
      "stateMutability": "nonpayable",
      "type": "function"
    },
    {
      "stateMutability": "payable",
      "type": "receive"
    }
  ],
  "bytecode": "0x60806040526001805534801561001457600080fd5b50600080546001600160a01b03191633179055611971806100366000396000f3fe6080604052600436106100eb5760003560e01c80638da5cb5b1161008a578063ae55a63711610059578063ae55a63714610333578063b135bbb014610353578063c782076f14610369578063d0e30db01461037f57600080fd5b80638da5cb5b146102b3578063a18556bc146102eb578063a8f7d44214610300578063a9ea37b61461032057600080fd5b80631824a1c1116100c65780631824a1c1146102395780632c4e591b146102505780632e1a7d4d14610265578063447b2a061461028557600080fd5b806248591c1461012c578063044a9758146101625780630ea92f351461019d57600080fd5b366101275760405134815233907fe1fffcc4923d04b559f4d29a8bfc6cda04eb5b0d3c460751c2402c5c5cc9109c9060200160405180910390a2005b600080fd5b34801561013857600080fd5b5061014c6101473660046115d8565b610387565b6040516101599190611679565b60405180910390f35b34801561016e57600080fd5b5061018f61017d3660046116c8565b60046020526000908152604090205481565b604051908152602001610159565b3480156101a957600080fd5b506102226101b83660046116ea565b600260208190526000918252604090912080546001820154928201546003830154600484015460058501546006860154600787015460089097015495976001600160a01b03169694959394929360ff8084169461010094859004821694818316939104909116908b565b6040516101599b9a9998979695949392919061173a565b34801561024557600080fd5b5061024e61060d565b005b34801561025c57600080fd5b5061018f610773565b34801561027157600080fd5b5061024e6102803660046116ea565b610788565b34801561029157600080fd5b506102a56102a03660046116c8565b6108e5565b6040516101599291906117b8565b3480156102bf57600080fd5b506000546102d3906001600160a01b031681565b6040516001600160a01b039091168152602001610159565b3480156102f757600080fd5b5061024e6109fa565b34801561030c57600080fd5b5061024e61031b3660046117cf565b610b31565b61024e61032e3660046116ea565b611025565b34801561033f57600080fd5b5061014c61034e3660046116ea565b611254565b34801561035f57600080fd5b5061018f60015481565b34801561037557600080fd5b5061018f60055481565b61024e6114be565b6060816000036103ca5760408051600080825260208201909252906103c2565b6103af61155e565b8152602001906001900390816103a75790505b509050610607565b601e8211156103d857601e91505b6001600160a01b0383166000908152600360205260408120549081900361043357604080516000808252602082019092529061042a565b61041761155e565b81526020019060019003908161040f5790505b50915050610607565b6000838210156104435781610445565b835b90508067ffffffffffffffff811115610460576104606117f1565b60405190808252806020026020018201604052801561049957816020015b61048661155e565b81526020019060019003908161047e5790505b5092506000825b6000811180156104af57508282105b15610602576001600160a01b03871660009081526003602052604081206104d760018461181d565b815481106104e7576104e7611830565b6000918252602080832090910154808352600282526040928390208351610120810185528154815260018201546001600160a01b03169381019390935260038082015494840194909452600581015491945092606083019160ff169081111561055257610552611703565b60ff1681526020018260050160019054906101000a900460ff16600381111561057d5761057d611703565b60ff908116825260078401546020909201911660038111156105a1576105a1611703565b60ff1681526006830154602082015260048301546040820152600883015460609091015287856105d081611846565b9650815181106105e2576105e2611830565b6020026020010181905250505080806105fa9061185f565b9150506104a0565b505050505b92915050565b6000546001600160a01b031633146106405760405162461bcd60e51b815260040161063790611876565b60405180910390fd5b600060055447610650919061181d565b9050600081116106985760405162461bcd60e51b81526020600482015260136024820152724e6f7468696e6720746f20776974686472617760681b6044820152606401610637565b600080546040516001600160a01b039091169083908381818185875af1925050503d80600081146106e5576040519150601f19603f3d011682016040523d82523d6000602084013e6106ea565b606091505b505090508061072d5760405162461bcd60e51b815260206004820152600f60248201526e15da5d1a191c985dc819985a5b1959608a1b6044820152606401610637565b6000546040518381526001600160a01b03909116907f884edad9ce6fa2440d8a54cc123490eb96d2768479d49ff9c7366125a94243649060200160405180910390a25050565b600060018054610783919061181d565b905090565b6000546001600160a01b031633146107b25760405162461bcd60e51b815260040161063790611876565b6000600554476107c2919061181d565b9050808211156108095760405162461bcd60e51b8152602060048201526012602482015271115e18d959591cc81d5b9c995cd95c9d995960721b6044820152606401610637565b600080546040516001600160a01b039091169084908381818185875af1925050503d8060008114610856576040519150601f19603f3d011682016040523d82523d6000602084013e61085b565b606091505b505090508061089e5760405162461bcd60e51b815260206004820152600f60248201526e15da5d1a191c985dc819985a5b1959608a1b6044820152606401610637565b6000546040518481526001600160a01b03909116907f884edad9ce6fa2440d8a54cc123490eb96d2768479d49ff9c7366125a94243649060200160405180910390a2505050565b60006108ef61155e565b6001600160a01b0383166000908152600460205260408120549081900361091a576000925050915091565b6000818152600260209081526040918290208251610120810184528154815260018201546001600160a01b0316928101929092526003808201549383019390935260058101549092606083019160ff169081111561097a5761097a611703565b60ff1681526020018260050160019054906101000a900460ff1660038111156109a5576109a5611703565b60ff908116825260078401546020909201911660038111156109c9576109c9611703565b60ff168152602001826006015481526020018260040154815260200182600801548152509250600193505050915091565b3360009081526004602052604081205490819003610a4b5760405162461bcd60e51b815260206004820152600e60248201526d4e6f206163746976652067616d6560901b6044820152606401610637565b60008181526002602052604090206007810154610100900460ff1615610aa65760405162461bcd60e51b815260206004820152601060248201526f105b1c9958591e48199a5b9a5cda195960821b6044820152606401610637565b6005818101805461ffff19908116909155600060068401819055600784018054909216610102179091554360088401553381526004602052604081208190556003830154825490929190610afb90849061181d565b9091555050604051829033907f52d692e007c37ea9f93a731dec9881a3d2009c718337cc995fb934bebdc56ad590600090a35050565b3360009081526004602052604081205490819003610b825760405162461bcd60e51b815260206004820152600e60248201526d4e6f206163746976652067616d6560901b6044820152606401610637565b60008181526002602052604090206007810154610100900460ff1615610bdd5760405162461bcd60e51b815260206004820152601060248201526f105b1c9958591e48199a5b9a5cda195960821b6044820152606401610637565b6000846003811115610bf157610bf1611703565b118015610c1057506003846003811115610c0d57610c0d611703565b11155b610c4b5760405162461bcd60e51b815260206004820152600c60248201526b496e76616c6964206d6f766560a01b6044820152606401610637565b60008484604051602001610c60929190611899565b60405160208183030381529060405280519060200120905081600201548114610cc25760405162461bcd60e51b8152602060048201526014602482015273125b9d985b1a59081b5bdd99481bdc881cd85b1d60621b6044820152606401610637565b6000444233604051602001610cfc93929190928352602083019190915260601b6bffffffffffffffffffffffff1916604082015260540190565b60408051601f19818403018152919052805160209091012090506000610d236003836118b5565b610d2e9060016118d7565b6003811115610d3f57610d3f611703565b905060006002826003811115610d5757610d57611703565b896003811115610d6957610d69611703565b03610d7c57505060038085015490610e3a565b6001896003811115610d9057610d90611703565b148015610dae57506003836003811115610dac57610dac611703565b145b80610de657506002896003811115610dc857610dc8611703565b148015610de657506001836003811115610de457610de4611703565b145b80610e1e57506003896003811115610e0057610e00611703565b148015610e1e57506002836003811115610e1c57610e1c611703565b145b15610e3a576003860154610e339060026118ea565b9150600190505b6005860180548a919060ff19166001836003811115610e5b57610e5b611703565b021790555060058601805484919061ff001916610100836003811115610e8357610e83611703565b02179055506006860182905560078601805482919060ff19166001836003811115610eb057610eb0611703565b021790555060078601805461ff00191661010017905543600887015533600090815260046020526040812081905560038701546005805491929091610ef690849061181d565b90915550508115610fd25781471015610f485760405162461bcd60e51b8152602060048201526014602482015273436f6e74726163742062616c616e6365206c6f7760601b6044820152606401610637565b604051600090339084908381818185875af1925050503d8060008114610f8a576040519150601f19603f3d011682016040523d82523d6000602084013e610f8f565b606091505b5050905080610fd05760405162461bcd60e51b815260206004820152600d60248201526c14185e5bdd5d0819985a5b1959609a1b6044820152606401610637565b505b86336001600160a01b03167ffe57ecd9a49c183cabfefc32d62783a27c344846c70c1ee5280b69581d86176c8b8685876040516110129493929190611901565b60405180910390a3505050505050505050565b600034116110755760405162461bcd60e51b815260206004820152601d60248201527f50617274696369706174696f6e20666565206d757374206265203e20300000006044820152606401610637565b336000908152600460205260409020548015806110a85750600081815260026020526040902060070154610100900460ff165b6110eb5760405162461bcd60e51b815260206004820152601460248201527346696e6973682070726576696f75732067616d6560601b6044820152606401610637565b60006110f7344761181d565b90503460055461110791906118d7565b8110156111565760405162461bcd60e51b815260206004820152601c60248201527f496e73756666696369656e7420686f757365206c6971756964697479000000006044820152606401610637565b600180546000918261116783611846565b909155506000818152600260208181526040808420858155600180820180546001600160a01b031916339081179091559482018b9055346003808401829055436004808601919091556005808601805461ffff19908116909155600687018b90556007870180549091169055600886018a905597895286528488208990558552928620805491820181558652928520909201859055825494955090939092906112119084906118d7565b9091555050604051348152829033907f44ab6335065cb21d8d31aaf52f3152dda1acb41265bcaeeee4c522ccc2240a9d9060200160405180910390a35050505050565b60608160000361129657604080516000808252602082019092529061128f565b61127c61155e565b8152602001906001900390816112745790505b5092915050565b601e8211156112a457601e91505b6000600180546112b4919061181d565b9050806000036112f75760408051600080825260208201909252906112ef565b6112dc61155e565b8152602001906001900390816112d45790505b509392505050565b60008382101561130857600161131d565b611312848361181d565b61131d9060016118d7565b9050600061132b828461181d565b6113369060016118d7565b90508067ffffffffffffffff811115611351576113516117f1565b60405190808252806020026020018201604052801561138a57816020015b61137761155e565b81526020019060019003908161136f5790505b5093506000835b8381106114b4576000818152600260209081526040918290208251610120810184528154815260018201546001600160a01b0316928101929092526003808201549383019390935260058101549092606083019160ff16908111156113f8576113f8611703565b60ff1681526020018260050160019054906101000a900460ff16600381111561142357611423611703565b60ff9081168252600784015460209092019116600381111561144757611447611703565b60ff16815260068301546020820152600483015460408201526008830154606090910152878461147681611846565b95508151811061148857611488611830565b6020026020010181905250816001036114a157506114b4565b50806114ac8161185f565b915050611391565b5050505050919050565b6000546001600160a01b031633146114e85760405162461bcd60e51b815260040161063790611876565b600034116115275760405162461bcd60e51b815260206004820152600c60248201526b16995c9bc819195c1bdcda5d60a21b6044820152606401610637565b60405134815233907fe1fffcc4923d04b559f4d29a8bfc6cda04eb5b0d3c460751c2402c5c5cc9109c9060200160405180910390a2565b6040518061012001604052806000815260200160006001600160a01b0316815260200160008152602001600060ff168152602001600060ff168152602001600060ff1681526020016000815260200160008152602001600081525090565b80356001600160a01b03811681146115d357600080fd5b919050565b600080604083850312156115eb57600080fd5b6115f4836115bc565b946020939093013593505050565b8051825260018060a01b0360208201511660208301526040810151604083015260ff60608201511660608301526080810151611643608084018260ff169052565b5060a081015161165860a084018260ff169052565b5060c0818101519083015260e0808201519083015261010090810151910152565b6020808252825182820181905260009190848201906040850190845b818110156116bc576116a8838551611602565b928401926101209290920191600101611695565b50909695505050505050565b6000602082840312156116da57600080fd5b6116e3826115bc565b9392505050565b6000602082840312156116fc57600080fd5b5035919050565b634e487b7160e01b600052602160045260246000fd5b6004811061173757634e487b7160e01b600052602160045260246000fd5b50565b8b81526001600160a01b038b166020820152604081018a90526060810189905260808101889052610160810161176f88611719565b8760a083015261177e87611719565b8660c08301528560e083015261179385611719565b6101008201949094529115156101208301526101409091015298975050505050505050565b821515815261014081016116e36020830184611602565b600080604083850312156117e257600080fd5b8235600481106115f457600080fd5b634e487b7160e01b600052604160045260246000fd5b634e487b7160e01b600052601160045260246000fd5b8181038181111561060757610607611807565b634e487b7160e01b600052603260045260246000fd5b60006001820161185857611858611807565b5060010190565b60008161186e5761186e611807565b506000190190565b6020808252600990820152682737ba1037bbb732b960b91b604082015260600190565b6118a283611719565b60f89290921b8252600182015260210190565b6000826118d257634e487b7160e01b600052601260045260246000fd5b500690565b8082018082111561060757610607611807565b808202811582820484141761060757610607611807565b6080810161190e86611719565b85825261191a85611719565b84602083015261192984611719565b6040820193909352606001529291505056fea2646970667358221220336f2c898d10cbaa2f664e06018ab02278c0d28a853c5b7499d5080d337e7b5c64736f6c63430008140033",
  "linkReferences": {},
  "deployedLinkReferences": {}
}